{
  "contractName": "Causes",
  "abi": [
    {
      "inputs": [],
      "stateMutability": "nonpayable",
      "type": "constructor"
    },
    {
      "inputs": [
        {
          "internalType": "address",
          "name": "addr",
          "type": "address"
        }
      ],
      "name": "setBlockfundsAddress",
      "outputs": [],
      "stateMutability": "nonpayable",
      "type": "function"
    },
    {
      "inputs": [
        {
          "internalType": "string",
          "name": "cause_name",
          "type": "string"
        },
        {
          "internalType": "string",
          "name": "activist_name",
          "type": "string"
        },
        {
          "internalType": "uint256",
          "name": "target_amount",
          "type": "uint256"
        },
        {
          "internalType": "uint256",
          "name": "time_threshold",
          "type": "uint256"
        }
      ],
      "name": "addCause",
      "outputs": [],
      "stateMutability": "nonpayable",
      "type": "function"
    },
    {
      "inputs": [],
      "name": "getCauses",
      "outputs": [
        {
          "internalType": "uint256[]",
          "name": "",
          "type": "uint256[]"
        },
        {
          "internalType": "string[]",
          "name": "",
          "type": "string[]"
        },
        {
          "internalType": "uint256[]",
          "name": "",
          "type": "uint256[]"
        },
        {
          "internalType": "uint256[]",
          "name": "",
          "type": "uint256[]"
        }
      ],
      "stateMutability": "view",
      "type": "function",
      "constant": true
    },
    {
      "inputs": [
        {
          "internalType": "uint256",
          "name": "cause_id",
          "type": "uint256"
        }
      ],
      "name": "receiveDonation",
      "outputs": [],
      "stateMutability": "payable",
      "type": "function",
      "payable": true
    },
    {
      "inputs": [
        {
          "internalType": "uint256",
          "name": "cause_id",
          "type": "uint256"
        }
      ],
      "name": "withrawDonations",
      "outputs": [],
      "stateMutability": "nonpayable",
      "type": "function"
    }
  ],
  "bytecode": "0x608060405234801561001057600080fd5b5033600260006101000a81548173ffffffffffffffffffffffffffffffffffffffff021916908373ffffffffffffffffffffffffffffffffffffffff160217905550611e60806100616000396000f3fe60806040526004361061004a5760003560e01c80630a85641b1461004f5780634fc77092146100785780635df2012e146100a6578063d70c03bc146100cf578063f103157d146100eb575b600080fd5b34801561005b57600080fd5b5061007660048036038101906100719190611149565b610114565b005b34801561008457600080fd5b5061008d610219565b60405161009d94939291906113e7565b60405180910390f35b3480156100b257600080fd5b506100cd60048036038101906100c891906114a6565b6105e9565b005b6100e960048036038101906100e491906114d3565b610687565b005b3480156100f757600080fd5b50610112600480360381019061010d91906114d3565b6106d9565b005b60008080549050905060006001816001815401808255809150500390600052602060002090505060008082815481106101505761014f611500565b5b90600052602060002090600702019050610168610f8c565b816000018190555085816001019081610181919061173b565b5060018160020160006101000a81548160ff021916908315150217905550338160020160016101000a81548173ffffffffffffffffffffffffffffffffffffffff021916908373ffffffffffffffffffffffffffffffffffffffff160217905550848160030190816101f3919061173b565b508381600401819055508243610209919061183c565b8160060181905550505050505050565b606080606080600080600090505b60008054905081101561029457600115156000828154811061024c5761024b611500565b5b906000526020600020906007020160020160009054906101000a900460ff1615150361028157818061027d90611870565b9250505b808061028c90611870565b915050610227565b5060008167ffffffffffffffff8111156102b1576102b0610fe8565b5b6040519080825280602002602001820160405280156102df5781602001602082028036833780820191505090505b50905060008267ffffffffffffffff8111156102fe576102fd610fe8565b5b60405190808252806020026020018201604052801561033157816020015b606081526020019060019003908161031c5790505b50905060008367ffffffffffffffff8111156103505761034f610fe8565b5b60405190808252806020026020018201604052801561037e5781602001602082028036833780820191505090505b50905060008467ffffffffffffffff81111561039d5761039c610fe8565b5b6040519080825280602002602001820160405280156103cb5781602001602082028036833780820191505090505b509050600080600090505b6000805490508110156105d05760011515600082815481106103fb576103fa611500565b5b906000526020600020906007020160020160009054906101000a900460ff161515036105bd576000818154811061043557610434611500565b5b90600052602060002090600702016000015486838151811061045a57610459611500565b5b6020026020010181815250506000818154811061047a57610479611500565b5b906000526020600020906007020160010180546104969061155e565b80601f01602080910402602001604051908101604052809291908181526020018280546104c29061155e565b801561050f5780601f106104e45761010080835404028352916020019161050f565b820191906000526020600020905b8154815290600101906020018083116104f257829003601f168201915b505050505085838151811061052757610526611500565b5b60200260200101819052506000818154811061054657610545611500565b5b90600052602060002090600702016005015484838151811061056b5761056a611500565b5b6020026020010181815250506000818154811061058b5761058a611500565b5b9060005260206000209060070201600401548383815181106105b0576105af611500565b5b6020026020010181815250505b80806105c890611870565b9150506103d6565b5084848484995099509950995050505050505090919293565b600260009054906101000a900473ffffffffffffffffffffffffffffffffffffffff1673ffffffffffffffffffffffffffffffffffffffff163373ffffffffffffffffffffffffffffffffffffffff161461064357600080fd5b80600360006101000a81548173ffffffffffffffffffffffffffffffffffffffff021916908373ffffffffffffffffffffffffffffffffffffffff16021790555050565b670de0b6b3a76400003461069b91906118e7565b600082815481106106af576106ae611500565b5b906000526020600020906007020160050160008282546106cf919061183c565b9250508190555050565b60011515600082815481106106f1576106f0611500565b5b906000526020600020906007020160020160009054906101000a900460ff16151514610752576040517f08c379a000000000000000000000000000000000000000000000000000000000815260040161074990611975565b60405180910390fd5b600080600360009054906101000a900473ffffffffffffffffffffffffffffffffffffffff1673ffffffffffffffffffffffffffffffffffffffff166040516024016040516020818303038152906040527fbc1e1bfb000000000000000000000000000000000000000000000000000000007bffffffffffffffffffffffffffffffffffffffffffffffffffffffff19166020820180517bffffffffffffffffffffffffffffffffffffffffffffffffffffffff838183161783525050505060405161081e91906119dc565b6000604051808303816000865af19150503d806000811461085b576040519150601f19603f3d011682016040523d82523d6000602084013e610860565b606091505b509150915060008180602001905181019061087b9190611a31565b90508073ffffffffffffffffffffffffffffffffffffffff16846040516024016108a59190611a6d565b6040516020818303038152906040527f981211e3000000000000000000000000000000000000000000000000000000007bffffffffffffffffffffffffffffffffffffffffffffffffffffffff19166020820180517bffffffffffffffffffffffffffffffffffffffffffffffffffffffff838183161783525050505060405161092f91906119dc565b6000604051808303816000865af19150503d806000811461096c576040519150601f19603f3d011682016040523d82523d6000602084013e610971565b606091505b5080935081945050506000828060200190518101906109909190611a9d565b9050600060036002836109a39190611aca565b6109ad91906118e7565b90508273ffffffffffffffffffffffffffffffffffffffff16866040516024016109d79190611a6d565b6040516020818303038152906040527f45674264000000000000000000000000000000000000000000000000000000007bffffffffffffffffffffffffffffffffffffffffffffffffffffffff19166020820180517bffffffffffffffffffffffffffffffffffffffffffffffffffffffff8381831617835250505050604051610a6191906119dc565b6000604051808303816000865af19150503d8060008114610a9e576040519150601f19603f3d011682016040523d82523d6000602084013e610aa3565b606091505b508095508196505050600084806020019051810190610ac29190611a9d565b905081811115610e03576060808573ffffffffffffffffffffffffffffffffffffffff1689604051602401610af79190611a6d565b6040516020818303038152906040527fd3d4d6ed000000000000000000000000000000000000000000000000000000007bffffffffffffffffffffffffffffffffffffffffffffffffffffffff19166020820180517bffffffffffffffffffffffffffffffffffffffffffffffffffffffff8381831617835250505050604051610b8191906119dc565b6000604051808303816000865af19150503d8060008114610bbe576040519150601f19603f3d011682016040523d82523d6000602084013e610bc3565b606091505b50809850819950505086806020019051810190610be09190611be9565b91508573ffffffffffffffffffffffffffffffffffffffff1689604051602401610c0a9190611a6d565b6040516020818303038152906040527f20cbf6ff000000000000000000000000000000000000000000000000000000007bffffffffffffffffffffffffffffffffffffffffffffffffffffffff19166020820180517bffffffffffffffffffffffffffffffffffffffffffffffffffffffff8381831617835250505050604051610c9491906119dc565b6000604051808303816000865af19150503d8060008114610cd1576040519150601f19603f3d011682016040523d82523d6000602084013e610cd6565b606091505b50809850819950505086806020019051810190610cf39190611cf5565b905060005b85811015610d94576000838281518110610d1557610d14611500565b5b602002602001015190508073ffffffffffffffffffffffffffffffffffffffff166108fc848481518110610d4c57610d4b611500565b5b60200260200101519081150290604051600060405180830381858888f19350505050158015610d7f573d6000803e3d6000fd5b50508080610d8c90611870565b915050610cf8565b506000808a81548110610daa57610da9611500565b5b906000526020600020906007020160020160006101000a81548160ff0219169083151502179055506000808a81548110610de757610de6611500565b5b9060005260206000209060070201600501819055505050610f83565b60008781548110610e1757610e16611500565b5b9060005260206000209060070201600601544311610e6a576040517f08c379a0000000000000000000000000000000000000000000000000000000008152600401610e6190611dd6565b60405180910390fd5b60008781548110610e7e57610e7d611500565b5b906000526020600020906007020160020160019054906101000a900473ffffffffffffffffffffffffffffffffffffffff1673ffffffffffffffffffffffffffffffffffffffff166108fc60008981548110610edd57610edc611500565b5b9060005260206000209060070201600501549081150290604051600060405180830381858888f19350505050158015610f1a573d6000803e3d6000fd5b506000808881548110610f3057610f2f611500565b5b906000526020600020906007020160020160006101000a81548160ff0219169083151502179055506000808881548110610f6d57610f6c611500565b5b9060005260206000209060070201600501819055505b50505050505050565b600060016000815480929190610fa190611870565b919050555060018054610fb49190611df6565b905090565b6000604051905090565b600080fd5b600080fd5b600080fd5b600080fd5b6000601f19601f8301169050919050565b7f4e487b7100000000000000000000000000000000000000000000000000000000600052604160045260246000fd5b61102082610fd7565b810181811067ffffffffffffffff8211171561103f5761103e610fe8565b5b80604052505050565b6000611052610fb9565b905061105e8282611017565b919050565b600067ffffffffffffffff82111561107e5761107d610fe8565b5b61108782610fd7565b9050602081019050919050565b82818337600083830152505050565b60006110b66110b184611063565b611048565b9050828152602081018484840111156110d2576110d1610fd2565b5b6110dd848285611094565b509392505050565b600082601f8301126110fa576110f9610fcd565b5b813561110a8482602086016110a3565b91505092915050565b6000819050919050565b61112681611113565b811461113157600080fd5b50565b6000813590506111438161111d565b92915050565b6000806000806080858703121561116357611162610fc3565b5b600085013567ffffffffffffffff81111561118157611180610fc8565b5b61118d878288016110e5565b945050602085013567ffffffffffffffff8111156111ae576111ad610fc8565b5b6111ba878288016110e5565b93505060406111cb87828801611134565b92505060606111dc87828801611134565b91505092959194509250565b600081519050919050565b600082825260208201905092915050565b6000819050602082019050919050565b61121d81611113565b82525050565b600061122f8383611214565b60208301905092915050565b6000602082019050919050565b6000611253826111e8565b61125d81856111f3565b935061126883611204565b8060005b838110156112995781516112808882611223565b975061128b8361123b565b92505060018101905061126c565b5085935050505092915050565b600081519050919050565b600082825260208201905092915050565b6000819050602082019050919050565b600081519050919050565b600082825260208201905092915050565b60005b8381101561130c5780820151818401526020810190506112f1565b60008484015250505050565b6000611323826112d2565b61132d81856112dd565b935061133d8185602086016112ee565b61134681610fd7565b840191505092915050565b600061135d8383611318565b905092915050565b6000602082019050919050565b600061137d826112a6565b61138781856112b1565b935083602082028501611399856112c2565b8060005b858110156113d557848403895281516113b68582611351565b94506113c183611365565b925060208a0199505060018101905061139d565b50829750879550505050505092915050565b600060808201905081810360008301526114018187611248565b905081810360208301526114158186611372565b905081810360408301526114298185611248565b9050818103606083015261143d8184611248565b905095945050505050565b600073ffffffffffffffffffffffffffffffffffffffff82169050919050565b600061147382611448565b9050919050565b61148381611468565b811461148e57600080fd5b50565b6000813590506114a08161147a565b92915050565b6000602082840312156114bc576114bb610fc3565b5b60006114ca84828501611491565b91505092915050565b6000602082840312156114e9576114e8610fc3565b5b60006114f784828501611134565b91505092915050565b7f4e487b7100000000000000000000000000000000000000000000000000000000600052603260045260246000fd5b7f4e487b7100000000000000000000000000000000000000000000000000000000600052602260045260246000fd5b6000600282049050600182168061157657607f821691505b6020821081036115895761158861152f565b5b50919050565b60008190508160005260206000209050919050565b60006020601f8301049050919050565b600082821b905092915050565b6000600883026115f17fffffffffffffffffffffffffffffffffffffffffffffffffffffffffffffffff826115b4565b6115fb86836115b4565b95508019841693508086168417925050509392505050565b6000819050919050565b600061163861163361162e84611113565b611613565b611113565b9050919050565b6000819050919050565b6116528361161d565b61166661165e8261163f565b8484546115c1565b825550505050565b600090565b61167b61166e565b611686818484611649565b505050565b5b818110156116aa5761169f600082611673565b60018101905061168c565b5050565b601f8211156116ef576116c08161158f565b6116c9846115a4565b810160208510156116d8578190505b6116ec6116e4856115a4565b83018261168b565b50505b505050565b600082821c905092915050565b6000611712600019846008026116f4565b1980831691505092915050565b600061172b8383611701565b9150826002028217905092915050565b611744826112d2565b67ffffffffffffffff81111561175d5761175c610fe8565b5b611767825461155e565b6117728282856116ae565b600060209050601f8311600181146117a55760008415611793578287015190505b61179d858261171f565b865550611805565b601f1984166117b38661158f565b60005b828110156117db578489015182556001820191506020850194506020810190506117b6565b868310156117f857848901516117f4601f891682611701565b8355505b6001600288020188555050505b505050505050565b7f4e487b7100000000000000000000000000000000000000000000000000000000600052601160045260246000fd5b600061184782611113565b915061185283611113565b925082820190508082111561186a5761186961180d565b5b92915050565b600061187b82611113565b91507fffffffffffffffffffffffffffffffffffffffffffffffffffffffffffffffff82036118ad576118ac61180d565b5b600182019050919050565b7f4e487b7100000000000000000000000000000000000000000000000000000000600052601260045260246000fd5b60006118f282611113565b91506118fd83611113565b92508261190d5761190c6118b8565b5b828204905092915050565b600082825260208201905092915050565b7f54686973206361757365206973206e6f74206163746976652e00000000000000600082015250565b600061195f601983611918565b915061196a82611929565b602082019050919050565b6000602082019050818103600083015261198e81611952565b9050919050565b600081519050919050565b600081905092915050565b60006119b682611995565b6119c081856119a0565b93506119d08185602086016112ee565b80840191505092915050565b60006119e882846119ab565b915081905092915050565b60006119fe82611448565b9050919050565b611a0e816119f3565b8114611a1957600080fd5b50565b600081519050611a2b81611a05565b92915050565b600060208284031215611a4757611a46610fc3565b5b6000611a5584828501611a1c565b91505092915050565b611a6781611113565b82525050565b6000602082019050611a826000830184611a5e565b92915050565b600081519050611a978161111d565b92915050565b600060208284031215611ab357611ab2610fc3565b5b6000611ac184828501611a88565b91505092915050565b6000611ad582611113565b9150611ae083611113565b9250828202611aee81611113565b91508282048414831517611b0557611b0461180d565b5b5092915050565b600067ffffffffffffffff821115611b2757611b26610fe8565b5b602082029050602081019050919050565b600080fd5b600081519050611b4c8161147a565b92915050565b6000611b65611b6084611b0c565b611048565b90508083825260208201905060208402830185811115611b8857611b87611b38565b5b835b81811015611bb15780611b9d8882611b3d565b845260208401935050602081019050611b8a565b5050509392505050565b600082601f830112611bd057611bcf610fcd565b5b8151611be0848260208601611b52565b91505092915050565b600060208284031215611bff57611bfe610fc3565b5b600082015167ffffffffffffffff811115611c1d57611c1c610fc8565b5b611c2984828501611bbb565b91505092915050565b600067ffffffffffffffff821115611c4d57611c4c610fe8565b5b602082029050602081019050919050565b6000611c71611c6c84611c32565b611048565b90508083825260208201905060208402830185811115611c9457611c93611b38565b5b835b81811015611cbd5780611ca98882611a88565b845260208401935050602081019050611c96565b5050509392505050565b600082601f830112611cdc57611cdb610fcd565b5b8151611cec848260208601611c5e565b91505092915050565b600060208284031215611d0b57611d0a610fc3565b5b600082015167ffffffffffffffff811115611d2957611d28610fc8565b5b611d3584828501611cc7565b91505092915050565b7f54686520646f6e6174696f6e732063616e6e6f7420626520776974686472617760008201527f6e20756e74696c2074686520646f6e6174696f6e20706572696f6420656e647360208201527f2e00000000000000000000000000000000000000000000000000000000000000604082015250565b6000611dc0604183611918565b9150611dcb82611d3e565b606082019050919050565b60006020820190508181036000830152611def81611db3565b9050919050565b6000611e0182611113565b9150611e0c83611113565b9250828203905081811115611e2457611e2361180d565b5b9291505056fea26469706673582212207168be14a5b8f1d151b3351b9470e5c1f26eafcfc55842a8acbbbc449cf3288b64736f6c63430008110033",
  "immutableReferences": {},
  "source": "// SPDX-License-Identifier: MIT\npragma solidity ^0.8.17;\n\ncontract Causes {\n    // ************************ STRUCTURES ************************ //\n\n    struct Cause {\n        // Data about the cause itself\n        uint256 cause_id;\n        string cause_name;\n        bool status;\n        // Data about the activist\n        address payable activist_address;\n        string activist_name;\n        // Data about the donations that are collected\n        uint256 target_amount;\n        uint256 collected_amount;\n        uint256 donation_period;\n    }\n\n    // ************************ STATE VARIABLES ************************ //\n\n    Cause[] private causes;\n    uint256 private counter;\n\n    address private owner;\n    address private blockfunds_address;\n\n    // ************************ UTILITIES ************************ //\n\n    function getCounter() private returns (uint256) {\n        counter++;\n        return counter - 1;\n    }\n\n    function setBlockfundsAddress(address addr) public {\n        require(msg.sender == owner);\n        blockfunds_address = addr;\n    }\n\n    // ************************ FUNCTIONS ************************ //\n\n    // Constructor\n    constructor() {\n        owner = msg.sender;\n    }\n\n    function addCause(\n        string memory cause_name,\n        string memory activist_name,\n        uint256 target_amount,\n        uint256 time_threshold\n    ) public {\n        uint256 idx = causes.length;\n        causes.push();\n        Cause storage new_cause = causes[idx];\n\n        new_cause.cause_id = getCounter();\n        new_cause.cause_name = cause_name;\n        new_cause.status = true;\n\n        new_cause.activist_address = payable(msg.sender);\n        new_cause.activist_name = activist_name;\n\n        new_cause.target_amount = target_amount;\n\n        new_cause.donation_period = block.number + time_threshold;\n    }\n\n    function getCauses()\n        public\n        view\n        returns (\n            uint256[] memory,\n            string[] memory,\n            uint256[] memory,\n            uint256[] memory\n        )\n    {\n        // Count the number of active causes\n        uint256 num_active_causes;\n        for (uint256 i = 0; i < causes.length; i++) {\n            if (causes[i].status == true) {\n                num_active_causes++;\n            }\n        }\n\n        // Add the data for the causes in the respective arrays\n        uint256[] memory cause_ids = new uint256[](num_active_causes);\n        string[] memory cause_names = new string[](num_active_causes);\n        uint256[] memory cause_collected_amounts = new uint256[](\n            num_active_causes\n        );\n        uint256[] memory cause_target_amounts = new uint256[](\n            num_active_causes\n        );\n\n        uint256 array_counter;\n        for (uint256 i = 0; i < causes.length; i++) {\n            if (causes[i].status == true) {\n                cause_ids[array_counter] = causes[i].cause_id;\n                cause_names[array_counter] = causes[i].cause_name;\n                cause_collected_amounts[array_counter] = causes[i]\n                    .collected_amount;\n                cause_target_amounts[array_counter] = causes[i].target_amount;\n            }\n        }\n\n        return (\n            cause_ids,\n            cause_names,\n            cause_collected_amounts,\n            cause_target_amounts\n        );\n    }\n\n    function receiveDonation(uint256 cause_id) public payable {\n        causes[cause_id].collected_amount += (msg.value / 1 ether);\n    }\n\n    function withrawDonations(uint256 cause_id) public {\n        // The cause must currently be active\n        require(causes[cause_id].status == true, \"This cause is not active.\");\n\n        // Check whether more than 2/3 objections have been raised\n        (bool success, bytes memory result) = blockfunds_address.call(\n            abi.encodeWithSignature(\"getDonorsAddress()\")\n        );\n\n        address donors_address = abi.decode(result, (address));\n\n        // Get the number of donors\n        (success, result) = donors_address.call(\n            abi.encodeWithSignature(\"getNumberOfDonors(uint256)\", cause_id)\n        );\n\n        uint256 num_donors = abi.decode(result, (uint256));\n        uint256 two_thirds = (num_donors * 2) / 3;\n\n        // Get the number of objections\n        (success, result) = donors_address.call(\n            abi.encodeWithSignature(\"getNumberOfObjections(uint256)\", cause_id)\n        );\n\n        uint256 num_objections = abi.decode(result, (uint256));\n\n        // Refund the donations if more than 2/3 objections have been raised\n        if (num_objections > two_thirds) {\n            address[] memory donor_addresses;\n            uint256[] memory donor_donated_amounts;\n\n            // Get the amount that has to be refunded to each donor\n            (success, result) = donors_address.call(\n                abi.encodeWithSignature(\"getDonorAddresses(uint256)\", cause_id)\n            );\n            donor_addresses = abi.decode(result, (address[]));\n\n            (success, result) = donors_address.call(\n                abi.encodeWithSignature(\n                    \"getDonorDonatedAmounts(uint256)\",\n                    cause_id\n                )\n            );\n            donor_donated_amounts = abi.decode(result, (uint256[]));\n\n            // Transfer the refund\n            for (uint256 i = 0; i < num_donors; i++) {\n                address payable payable_donor_address = payable(\n                    donor_addresses[i]\n                );\n                payable_donor_address.transfer(donor_donated_amounts[i]);\n            }\n\n            // Reset the data for the cause\n            causes[cause_id].status = false;\n            causes[cause_id].collected_amount = 0;\n        } else {\n            require(\n                block.number > causes[cause_id].donation_period,\n                \"The donations cannot be withdrawn until the donation period ends.\"\n            );\n\n            // Transfer the donations to the activist's address\n            causes[cause_id].activist_address.transfer(\n                causes[cause_id].collected_amount\n            );\n\n            // Reset the data for the cause\n            causes[cause_id].status = false;\n            causes[cause_id].collected_amount = 0;\n        }\n    }\n}\n",
  "sourcePath": "/home/huzaifa/Blockfunds/contracts/contracts/Causes.sol",
  "compiler": {
    "name": "solc",
    "version": "0.8.17+commit.8df45f5f.Emscripten.clang"
  },
  "schemaVersion": "3.4.11",
  "updatedAt": "2022-12-27T02:38:32.366Z",
  "networkType": "ethereum",
  "devdoc": {
    "kind": "dev",
    "methods": {},
    "version": 1
  },
  "userdoc": {
    "kind": "user",
    "methods": {},
    "version": 1
  }
}