{
  "contractName": "Donors",
  "abi": [
    {
      "inputs": [],
      "stateMutability": "nonpayable",
      "type": "constructor"
    },
    {
      "inputs": [
        {
          "internalType": "address",
          "name": "addr",
          "type": "address"
        }
      ],
      "name": "setBlockfundsAddress",
      "outputs": [],
      "stateMutability": "nonpayable",
      "type": "function"
    },
    {
      "inputs": [
        {
          "internalType": "string",
          "name": "donor_name",
          "type": "string"
        }
      ],
      "name": "addDonor",
      "outputs": [],
      "stateMutability": "nonpayable",
      "type": "function"
    },
    {
      "inputs": [],
      "name": "getDonorId",
      "outputs": [
        {
          "internalType": "int256",
          "name": "",
          "type": "int256"
        }
      ],
      "stateMutability": "view",
      "type": "function",
      "constant": true
    },
    {
      "inputs": [
        {
          "internalType": "uint256",
          "name": "donor_id",
          "type": "uint256"
        }
      ],
      "name": "getDonorData",
      "outputs": [
        {
          "internalType": "string",
          "name": "",
          "type": "string"
        },
        {
          "internalType": "uint256[]",
          "name": "",
          "type": "uint256[]"
        },
        {
          "internalType": "uint256[]",
          "name": "",
          "type": "uint256[]"
        }
      ],
      "stateMutability": "view",
      "type": "function",
      "constant": true
    },
    {
      "inputs": [
        {
          "internalType": "uint256",
          "name": "donor_id",
          "type": "uint256"
        },
        {
          "internalType": "uint256",
          "name": "cause_id",
          "type": "uint256"
        }
      ],
      "name": "donate",
      "outputs": [],
      "stateMutability": "payable",
      "type": "function",
      "payable": true
    },
    {
      "inputs": [
        {
          "internalType": "uint256",
          "name": "donor_id",
          "type": "uint256"
        },
        {
          "internalType": "uint256",
          "name": "cause_id",
          "type": "uint256"
        }
      ],
      "name": "raiseObbjection",
      "outputs": [],
      "stateMutability": "nonpayable",
      "type": "function"
    },
    {
      "inputs": [
        {
          "internalType": "uint256",
          "name": "cause_id",
          "type": "uint256"
        }
      ],
      "name": "getDonorAddresses",
      "outputs": [
        {
          "internalType": "address[]",
          "name": "",
          "type": "address[]"
        }
      ],
      "stateMutability": "view",
      "type": "function",
      "constant": true
    },
    {
      "inputs": [
        {
          "internalType": "uint256",
          "name": "cause_id",
          "type": "uint256"
        }
      ],
      "name": "getDonorDonatedAmounts",
      "outputs": [
        {
          "internalType": "uint256[]",
          "name": "",
          "type": "uint256[]"
        }
      ],
      "stateMutability": "view",
      "type": "function",
      "constant": true
    },
    {
      "inputs": [
        {
          "internalType": "uint256",
          "name": "cause_id",
          "type": "uint256"
        }
      ],
      "name": "getNumberOfDonors",
      "outputs": [
        {
          "internalType": "uint256",
          "name": "",
          "type": "uint256"
        }
      ],
      "stateMutability": "view",
      "type": "function",
      "constant": true
    },
    {
      "inputs": [
        {
          "internalType": "uint256",
          "name": "cause_id",
          "type": "uint256"
        }
      ],
      "name": "getNumberOfObjections",
      "outputs": [
        {
          "internalType": "uint256",
          "name": "",
          "type": "uint256"
        }
      ],
      "stateMutability": "view",
      "type": "function",
      "constant": true
    },
    {
      "inputs": [],
      "name": "forceRefund",
      "outputs": [],
      "stateMutability": "nonpayable",
      "type": "function"
    }
  ],
  "bytecode": "0x608060405234801561001057600080fd5b5033600260006101000a81548173ffffffffffffffffffffffffffffffffffffffff021916908373ffffffffffffffffffffffffffffffffffffffff160217905550611f1a806100616000396000f3fe60806040526004361061009c5760003560e01c8063780c851e11610064578063780c851e14610189578063981211e3146101b2578063bd7427f8146101ef578063cbc097b414610206578063d3d4d6ed14610245578063f7e3d587146102825761009c565b80630cdd53f6146100a15780631865b87f146100bd57806320cbf6ff146100e657806345674264146101235780635df2012e14610160575b600080fd5b6100bb60048036038101906100b69190611173565b6102ad565b005b3480156100c957600080fd5b506100e460048036038101906100df91906112f9565b61074e565b005b3480156100f257600080fd5b5061010d60048036038101906101089190611342565b610804565b60405161011a919061142d565b60405180910390f35b34801561012f57600080fd5b5061014a60048036038101906101459190611342565b610923565b604051610157919061145e565b60405180910390f35b34801561016c57600080fd5b50610187600480360381019061018291906114d7565b6109b1565b005b34801561019557600080fd5b506101b060048036038101906101ab9190611173565b610a4f565b005b3480156101be57600080fd5b506101d960048036038101906101d49190611342565b610b9e565b6040516101e6919061145e565b60405180910390f35b3480156101fb57600080fd5b50610204610c1b565b005b34801561021257600080fd5b5061022d60048036038101906102289190611342565b610c1d565b60405161023c93929190611583565b60405180910390f35b34801561025157600080fd5b5061026c60048036038101906102679190611342565b610eaa565b604051610279919061168d565b60405180910390f35b34801561028e57600080fd5b50610297611006565b6040516102a491906116c8565b60405180910390f35b600034116102f0576040517f08c379a00000000000000000000000000000000000000000000000000000000081526004016102e79061172f565b60405180910390fd5b60008083815481106103055761030461174f565b5b906000526020600020906006020160040160008381526020019081526020016000205414610368576040517f08c379a000000000000000000000000000000000000000000000000000000000815260040161035f906117f0565b60405180910390fd5b6000805b600084815481106103805761037f61174f565b5b9060005260206000209060060201600301805490508110156103fc5782600085815481106103b1576103b061174f565b5b906000526020600020906006020160030182815481106103d4576103d361174f565b5b9060005260206000200154036103e957600191505b80806103f49061183f565b91505061036c565b508061044f57600083815481106104165761041561174f565b5b90600052602060002090600602016003018290806001815401808255809150506001900390600052602060002001600090919091909150555b670de0b6b3a76400003461046391906118b6565b600084815481106104775761047661174f565b5b9060005260206000209060060201600401600084815260200190815260200160002081905550600080600360009054906101000a900473ffffffffffffffffffffffffffffffffffffffff1673ffffffffffffffffffffffffffffffffffffffff166040516024016040516020818303038152906040527fb0504bee000000000000000000000000000000000000000000000000000000007bffffffffffffffffffffffffffffffffffffffffffffffffffffffff19166020820180517bffffffffffffffffffffffffffffffffffffffffffffffffffffffff8381831617835250505050604051610569919061192e565b6000604051808303816000865af19150503d80600081146105a6576040519150601f19603f3d011682016040523d82523d6000602084013e6105ab565b606091505b5091509150816105f0576040517f08c379a00000000000000000000000000000000000000000000000000000000081526004016105e790611991565b60405180910390fd5b60008180602001905181019061060691906119ef565b90508073ffffffffffffffffffffffffffffffffffffffff163486604051602401610631919061145e565b6040516020818303038152906040527fd70c03bc000000000000000000000000000000000000000000000000000000007bffffffffffffffffffffffffffffffffffffffffffffffffffffffff19166020820180517bffffffffffffffffffffffffffffffffffffffffffffffffffffffff83818316178352505050506040516106bb919061192e565b60006040518083038185875af1925050503d80600081146106f8576040519150601f19603f3d011682016040523d82523d6000602084013e6106fd565b606091505b50809350819450505082610746576040517f08c379a000000000000000000000000000000000000000000000000000000000815260040161073d90611a68565b60405180910390fd5b505050505050565b600080805490509050600060018160018154018082558091505003906000526020600020905050600080828154811061078a5761078961174f565b5b906000526020600020906006020190506107a26110fc565b8160000181905550338160010160006101000a81548173ffffffffffffffffffffffffffffffffffffffff021916908373ffffffffffffffffffffffffffffffffffffffff160217905550828160020190816107fe9190611c94565b50505050565b6060600061081183610b9e565b905060008167ffffffffffffffff81111561082f5761082e6111ce565b5b60405190808252806020026020018201604052801561085d5781602001602082028036833780820191505090505b50905060005b6000805490508110156109185760008082815481106108855761088461174f565b5b9060005260206000209060060201600401600087815260200190815260200160002054111561090557600081815481106108c2576108c161174f565b5b90600052602060002090600602016004016000868152602001908152602001600020548282815181106108f8576108f761174f565b5b6020026020010181815250505b80806109109061183f565b915050610863565b508092505050919050565b60008060005b6000805490508110156109a757600115156000828154811061094e5761094d61174f565b5b9060005260206000209060060201600501600086815260200190815260200160002060009054906101000a900460ff161515036109945781806109909061183f565b9250505b808061099f9061183f565b915050610929565b5080915050919050565b600260009054906101000a900473ffffffffffffffffffffffffffffffffffffffff1673ffffffffffffffffffffffffffffffffffffffff163373ffffffffffffffffffffffffffffffffffffffff1614610a0b57600080fd5b80600360006101000a81548173ffffffffffffffffffffffffffffffffffffffff021916908373ffffffffffffffffffffffffffffffffffffffff16021790555050565b6000808381548110610a6457610a6361174f565b5b906000526020600020906006020160040160008381526020019081526020016000205411610ac7576040517f08c379a0000000000000000000000000000000000000000000000000000000008152600401610abe90611dfe565b60405180910390fd5b60008281548110610adb57610ada61174f565b5b9060005260206000209060060201600501600082815260200190815260200160002060009054906101000a900460ff1615610b4b576040517f08c379a0000000000000000000000000000000000000000000000000000000008152600401610b4290611e90565b60405180910390fd5b600160008381548110610b6157610b6061174f565b5b9060005260206000209060060201600501600083815260200190815260200160002060006101000a81548160ff0219169083151502179055505050565b60008060005b600080549050811015610c11576000808281548110610bc657610bc561174f565b5b90600052602060002090600602016004016000868152602001908152602001600020541115610bfe578180610bfa9061183f565b9250505b8080610c099061183f565b915050610ba4565b5080915050919050565b565b60608060606000808581548110610c3757610c3661174f565b5b90600052602060002090600602016003018054905067ffffffffffffffff811115610c6557610c646111ce565b5b604051908082528060200260200182016040528015610c935781602001602082028036833780820191505090505b50905060005b60008681548110610cad57610cac61174f565b5b906000526020600020906006020160030180549050811015610d725760008681548110610cdd57610cdc61174f565b5b90600052602060002090600602016004016000808881548110610d0357610d0261174f565b5b90600052602060002090600602016003018381548110610d2657610d2561174f565b5b9060005260206000200154815260200190815260200160002054828281518110610d5357610d5261174f565b5b6020026020010181815250508080610d6a9061183f565b915050610c99565b5060008581548110610d8757610d8661174f565b5b906000526020600020906006020160020160008681548110610dac57610dab61174f565b5b906000526020600020906006020160030182828054610dca90611ab7565b80601f0160208091040260200160405190810160405280929190818152602001828054610df690611ab7565b8015610e435780601f10610e1857610100808354040283529160200191610e43565b820191906000526020600020905b815481529060010190602001808311610e2657829003601f168201915b5050505050925081805480602002602001604051908101604052809291908181526020018280548015610e9557602002820191906000526020600020905b815481526020019060010190808311610e81575b50505050509150935093509350509193909250565b60606000610eb783610b9e565b905060008167ffffffffffffffff811115610ed557610ed46111ce565b5b604051908082528060200260200182016040528015610f035781602001602082028036833780820191505090505b50905060005b600080549050811015610ffb576000808281548110610f2b57610f2a61174f565b5b90600052602060002090600602016004016000878152602001908152602001600020541115610fe85760008181548110610f6857610f6761174f565b5b906000526020600020906006020160010160009054906101000a900473ffffffffffffffffffffffffffffffffffffffff16828281518110610fad57610fac61174f565b5b602002602001019073ffffffffffffffffffffffffffffffffffffffff16908173ffffffffffffffffffffffffffffffffffffffff16815250505b8080610ff39061183f565b915050610f09565b508092505050919050565b600080600090505b6000805490508110156110d4573373ffffffffffffffffffffffffffffffffffffffff16600082815481106110465761104561174f565b5b906000526020600020906006020160010160009054906101000a900473ffffffffffffffffffffffffffffffffffffffff1673ffffffffffffffffffffffffffffffffffffffff16036110c157600081815481106110a7576110a661174f565b5b9060005260206000209060060201600001549150506110f9565b80806110cc9061183f565b91505061100e565b507fffffffffffffffffffffffffffffffffffffffffffffffffffffffffffffffff90505b90565b6000600160008154809291906111119061183f565b9190505550600180546111249190611eb0565b905090565b6000604051905090565b600080fd5b600080fd5b6000819050919050565b6111508161113d565b811461115b57600080fd5b50565b60008135905061116d81611147565b92915050565b6000806040838503121561118a57611189611133565b5b60006111988582860161115e565b92505060206111a98582860161115e565b9150509250929050565b600080fd5b600080fd5b6000601f19601f8301169050919050565b7f4e487b7100000000000000000000000000000000000000000000000000000000600052604160045260246000fd5b611206826111bd565b810181811067ffffffffffffffff82111715611225576112246111ce565b5b80604052505050565b6000611238611129565b905061124482826111fd565b919050565b600067ffffffffffffffff821115611264576112636111ce565b5b61126d826111bd565b9050602081019050919050565b82818337600083830152505050565b600061129c61129784611249565b61122e565b9050828152602081018484840111156112b8576112b76111b8565b5b6112c384828561127a565b509392505050565b600082601f8301126112e0576112df6111b3565b5b81356112f0848260208601611289565b91505092915050565b60006020828403121561130f5761130e611133565b5b600082013567ffffffffffffffff81111561132d5761132c611138565b5b611339848285016112cb565b91505092915050565b60006020828403121561135857611357611133565b5b60006113668482850161115e565b91505092915050565b600081519050919050565b600082825260208201905092915050565b6000819050602082019050919050565b6113a48161113d565b82525050565b60006113b6838361139b565b60208301905092915050565b6000602082019050919050565b60006113da8261136f565b6113e4818561137a565b93506113ef8361138b565b8060005b8381101561142057815161140788826113aa565b9750611412836113c2565b9250506001810190506113f3565b5085935050505092915050565b6000602082019050818103600083015261144781846113cf565b905092915050565b6114588161113d565b82525050565b6000602082019050611473600083018461144f565b92915050565b600073ffffffffffffffffffffffffffffffffffffffff82169050919050565b60006114a482611479565b9050919050565b6114b481611499565b81146114bf57600080fd5b50565b6000813590506114d1816114ab565b92915050565b6000602082840312156114ed576114ec611133565b5b60006114fb848285016114c2565b91505092915050565b600081519050919050565b600082825260208201905092915050565b60005b8381101561153e578082015181840152602081019050611523565b60008484015250505050565b600061155582611504565b61155f818561150f565b935061156f818560208601611520565b611578816111bd565b840191505092915050565b6000606082019050818103600083015261159d818661154a565b905081810360208301526115b181856113cf565b905081810360408301526115c581846113cf565b9050949350505050565b600081519050919050565b600082825260208201905092915050565b6000819050602082019050919050565b61160481611499565b82525050565b600061161683836115fb565b60208301905092915050565b6000602082019050919050565b600061163a826115cf565b61164481856115da565b935061164f836115eb565b8060005b83811015611680578151611667888261160a565b975061167283611622565b925050600181019050611653565b5085935050505092915050565b600060208201905081810360008301526116a7818461162f565b905092915050565b6000819050919050565b6116c2816116af565b82525050565b60006020820190506116dd60008301846116b9565b92915050565b7f54686520646f6e6174696f6e20616d6f756e7420697320696e76616c69642e00600082015250565b6000611719601f8361150f565b9150611724826116e3565b602082019050919050565b600060208201905081810360008301526117488161170c565b9050919050565b7f4e487b7100000000000000000000000000000000000000000000000000000000600052603260045260246000fd5b7f596f752063616e6e6f7420646f6e617465206d6f7265207468616e206f6e636560008201527f2e00000000000000000000000000000000000000000000000000000000000000602082015250565b60006117da60218361150f565b91506117e58261177e565b604082019050919050565b60006020820190508181036000830152611809816117cd565b9050919050565b7f4e487b7100000000000000000000000000000000000000000000000000000000600052601160045260246000fd5b600061184a8261113d565b91507fffffffffffffffffffffffffffffffffffffffffffffffffffffffffffffffff820361187c5761187b611810565b5b600182019050919050565b7f4e487b7100000000000000000000000000000000000000000000000000000000600052601260045260246000fd5b60006118c18261113d565b91506118cc8361113d565b9250826118dc576118db611887565b5b828204905092915050565b600081519050919050565b600081905092915050565b6000611908826118e7565b61191281856118f2565b9350611922818560208601611520565b80840191505092915050565b600061193a82846118fd565b915081905092915050565b7f426c6f636b66756e647320636f756c64206e6f7420626520696e766f6b65642e600082015250565b600061197b60208361150f565b915061198682611945565b602082019050919050565b600060208201905081810360008301526119aa8161196e565b9050919050565b60006119bc82611479565b9050919050565b6119cc816119b1565b81146119d757600080fd5b50565b6000815190506119e9816119c3565b92915050565b600060208284031215611a0557611a04611133565b5b6000611a13848285016119da565b91505092915050565b7f54686520646f6e6174696f6e20636f756c64206e6f742062652073656e742e00600082015250565b6000611a52601f8361150f565b9150611a5d82611a1c565b602082019050919050565b60006020820190508181036000830152611a8181611a45565b9050919050565b7f4e487b7100000000000000000000000000000000000000000000000000000000600052602260045260246000fd5b60006002820490506001821680611acf57607f821691505b602082108103611ae257611ae1611a88565b5b50919050565b60008190508160005260206000209050919050565b60006020601f8301049050919050565b600082821b905092915050565b600060088302611b4a7fffffffffffffffffffffffffffffffffffffffffffffffffffffffffffffffff82611b0d565b611b548683611b0d565b95508019841693508086168417925050509392505050565b6000819050919050565b6000611b91611b8c611b878461113d565b611b6c565b61113d565b9050919050565b6000819050919050565b611bab83611b76565b611bbf611bb782611b98565b848454611b1a565b825550505050565b600090565b611bd4611bc7565b611bdf818484611ba2565b505050565b5b81811015611c0357611bf8600082611bcc565b600181019050611be5565b5050565b601f821115611c4857611c1981611ae8565b611c2284611afd565b81016020851015611c31578190505b611c45611c3d85611afd565b830182611be4565b50505b505050565b600082821c905092915050565b6000611c6b60001984600802611c4d565b1980831691505092915050565b6000611c848383611c5a565b9150826002028217905092915050565b611c9d82611504565b67ffffffffffffffff811115611cb657611cb56111ce565b5b611cc08254611ab7565b611ccb828285611c07565b600060209050601f831160018114611cfe5760008415611cec578287015190505b611cf68582611c78565b865550611d5e565b601f198416611d0c86611ae8565b60005b82811015611d3457848901518255600182019150602085019450602081019050611d0f565b86831015611d515784890151611d4d601f891682611c5a565b8355505b6001600288020188555050505b505050505050565b7f596f752063616e6e6f7420726169736520616e206f626a656374696f6e20666f60008201527f722061206361757365207468617420796f752068617665206e6f7420646f6e6160208201527f74656420746f2e00000000000000000000000000000000000000000000000000604082015250565b6000611de860478361150f565b9150611df382611d66565b606082019050919050565b60006020820190508181036000830152611e1781611ddb565b9050919050565b7f596f75206861766520616c72656164792072616973656420616e79206f626a6560008201527f6374696f6e20666f7220746869732063617573652e0000000000000000000000602082015250565b6000611e7a60358361150f565b9150611e8582611e1e565b604082019050919050565b60006020820190508181036000830152611ea981611e6d565b9050919050565b6000611ebb8261113d565b9150611ec68361113d565b9250828203905081811115611ede57611edd611810565b5b9291505056fea2646970667358221220af6335f3aff6ecdd58b46dab8d1a89eb402857732b11ecd215b91834e216fc1a64736f6c63430008110033",
  "immutableReferences": {},
  "source": "// SPDX-License-Identifier: MIT\npragma solidity ^0.8.17;\n\ncontract Donors {\n    // ************************ STRUCTURES ************************ //\n\n    struct Donor {\n        uint256 donor_id;\n        address payable donor_address;\n        string donor_name;\n        uint256[] donated_to;\n        mapping(uint256 => uint256) amount_donated; // Stores the amount of money that has been donated to each cause\n        mapping(uint256 => bool) objections; // Stores whether an objection has been raised for each cause\n    }\n\n    // ************************ STATE VARIABLES ************************ //\n\n    Donor[] private donors;\n    uint256 private counter;\n\n    address private owner;\n    address private blockfunds_address;\n\n    // ************************ UTILITIES ************************ //\n\n    function getCounter() private returns (uint256) {\n        counter++;\n        return counter - 1;\n    }\n\n    function setBlockfundsAddress(address addr) public {\n        require(msg.sender == owner);\n        blockfunds_address = addr;\n    }\n\n    // ************************ FUNCTIONS ************************ //\n\n    // Constructor\n    constructor() {\n        owner = msg.sender;\n    }\n\n    // Adds a new donor\n    function addDonor(string memory donor_name) public {\n        uint256 idx = donors.length;\n        donors.push();\n        Donor storage new_donor = donors[idx];\n\n        new_donor.donor_id = getCounter();\n        new_donor.donor_address = payable(msg.sender);\n        new_donor.donor_name = donor_name;\n    }\n\n    // Returns a donor's ID\n    function getDonorId() public view returns (int256) {\n        for (uint256 i = 0; i < donors.length; i++) {\n            if (donors[i].donor_address == msg.sender) {\n                return int256(donors[i].donor_id);\n            }\n        }\n        return -1;\n    }\n\n    // Returns a donor's name and donation data\n    function getDonorData(uint256 donor_id)\n        public\n        view\n        returns (\n            string memory,\n            uint256[] memory,\n            uint256[] memory\n        )\n    {\n        uint256[] memory amount_donated = new uint256[](\n            donors[donor_id].donated_to.length\n        );\n        for (uint256 i = 0; i < donors[donor_id].donated_to.length; i++) {\n            amount_donated[i] = donors[donor_id].amount_donated[\n                donors[donor_id].donated_to[i]\n            ];\n        }\n\n        return (\n            donors[donor_id].donor_name,\n            donors[donor_id].donated_to,\n            amount_donated\n        );\n    }\n\n    // Allows a donor to donate to the given cause\n    function donate(uint256 donor_id, uint256 cause_id) public payable {\n        // Ensure that the donation amount is positive\n        require(msg.value > 0, \"The donation amount is invalid.\");\n        require(\n            donors[donor_id].amount_donated[cause_id] == 0,\n            \"You cannot donate more than once.\"\n        );\n\n        bool flag = false;\n\n        // Check whether the donor has already donated to the cause before\n        for (uint256 i = 0; i < donors[donor_id].donated_to.length; i++) {\n            if (donors[donor_id].donated_to[i] == cause_id) {\n                flag = true;\n            }\n        }\n\n        if (!flag) {\n            donors[donor_id].donated_to.push(cause_id);\n        }\n\n        // Add the amount\n        donors[donor_id].amount_donated[cause_id] = (msg.value / 1 ether);\n\n        // Send the amount to the 'causes' contract\n        (bool success, bytes memory result) = blockfunds_address.call(\n            abi.encodeWithSignature(\"getCausesAddress()\")\n        );\n        require(success, \"Blockfunds could not be invoked.\");\n\n        address causes_address = abi.decode(result, (address));\n\n        (success, result) = causes_address.call{value: msg.value}(\n            abi.encodeWithSignature(\"receiveDonation(uint256)\", cause_id)\n        );\n        require(success, \"The donation could not be sent.\");\n    }\n\n    // Allows a donor to raise an objection for the given cause\n    function raiseObbjection(uint256 donor_id, uint256 cause_id) public {\n        require(\n            donors[donor_id].amount_donated[cause_id] > 0,\n            \"You cannot raise an objection for a cause that you have not donated to.\"\n        );\n\n        require(\n            !donors[donor_id].objections[cause_id],\n            \"You have already raised any objection for this cause.\"\n        );\n\n        donors[donor_id].objections[cause_id] = true;\n    }\n\n    // Returns the addresses of the donors for the given cause\n    function getDonorAddresses(uint256 cause_id)\n        public\n        view\n        returns (address[] memory)\n    {\n        // Create an array of appropriate size\n        uint256 num_donors = getNumberOfDonors(cause_id);\n        address[] memory donor_addresses = new address[](num_donors);\n\n        // Copy the data of the donors into the array\n        for (uint256 i = 0; i < donors.length; i++) {\n            if (donors[i].amount_donated[cause_id] > 0) {\n                donor_addresses[i] = donors[i].donor_address;\n            }\n        }\n\n        return (donor_addresses);\n    }\n\n    function getDonorDonatedAmounts(uint256 cause_id)\n        public\n        view\n        returns (uint256[] memory)\n    {\n        // Create an array of appropriate size\n        uint256 num_donors = getNumberOfDonors(cause_id);\n        uint256[] memory donor_donated_amounts = new uint256[](num_donors);\n\n        // Copy the data of the donors into the array\n        for (uint256 i = 0; i < donors.length; i++) {\n            if (donors[i].amount_donated[cause_id] > 0) {\n                donor_donated_amounts[i] = donors[i].amount_donated[cause_id];\n            }\n        }\n\n        return (donor_donated_amounts);\n    }\n\n    // Returns the number of donors for the given cause\n    function getNumberOfDonors(uint256 cause_id) public view returns (uint256) {\n        uint256 num_donors;\n        for (uint256 i = 0; i < donors.length; i++) {\n            if (donors[i].amount_donated[cause_id] > 0) {\n                num_donors++;\n            }\n        }\n\n        return num_donors;\n    }\n\n    // Returns the number of objections for the given cause\n    function getNumberOfObjections(uint256 cause_id)\n        public\n        view\n        returns (uint256)\n    {\n        uint256 num_objections;\n        for (uint256 i = 0; i < donors.length; i++) {\n            if (donors[i].objections[cause_id] == true) {\n                num_objections++;\n            }\n        }\n\n        return num_objections;\n    }\n\n    function forceRefund() public {}\n}\n",
  "sourcePath": "/home/huzaifa/Blockfunds/contracts/contracts/Donors.sol",
  "compiler": {
    "name": "solc",
    "version": "0.8.17+commit.8df45f5f.Emscripten.clang"
  },
  "schemaVersion": "3.4.11",
  "updatedAt": "2022-12-27T02:38:31.056Z",
  "networkType": "ethereum",
  "devdoc": {
    "kind": "dev",
    "methods": {},
    "version": 1
  },
  "userdoc": {
    "kind": "user",
    "methods": {},
    "version": 1
  }
}