{
  "contractName": "Blockfunds",
  "abi": [
    {
      "inputs": [],
      "stateMutability": "nonpayable",
      "type": "constructor"
    },
    {
      "inputs": [
        {
          "internalType": "address",
          "name": "donors_addr",
          "type": "address"
        }
      ],
      "name": "setContractDonors",
      "outputs": [],
      "stateMutability": "nonpayable",
      "type": "function"
    },
    {
      "inputs": [
        {
          "internalType": "address",
          "name": "causes_addr",
          "type": "address"
        }
      ],
      "name": "setContractCauses",
      "outputs": [],
      "stateMutability": "nonpayable",
      "type": "function"
    },
    {
      "inputs": [],
      "name": "getContractDonors",
      "outputs": [
        {
          "internalType": "address",
          "name": "",
          "type": "address"
        }
      ],
      "stateMutability": "view",
      "type": "function"
    },
    {
      "inputs": [],
      "name": "getContractCauses",
      "outputs": [
        {
          "internalType": "address",
          "name": "",
          "type": "address"
        }
      ],
      "stateMutability": "view",
      "type": "function"
    }
  ],
  "bytecode": "0x608060405234801561001057600080fd5b50336000806101000a81548173ffffffffffffffffffffffffffffffffffffffff021916908373ffffffffffffffffffffffffffffffffffffffff160217905550610341806100606000396000f3fe608060405234801561001057600080fd5b506004361061004c5760003560e01c806323595d111461005157806327b4898a1461006f578063ca708fb41461008d578063e4230e5e146100a9575b600080fd5b6100596100c5565b6040516100669190610292565b60405180910390f35b6100776100ef565b6040516100849190610292565b60405180910390f35b6100a760048036038101906100a291906102de565b610119565b005b6100c360048036038101906100be91906102de565b6101b5565b005b6000600260009054906101000a900473ffffffffffffffffffffffffffffffffffffffff16905090565b6000600160009054906101000a900473ffffffffffffffffffffffffffffffffffffffff16905090565b60008054906101000a900473ffffffffffffffffffffffffffffffffffffffff1673ffffffffffffffffffffffffffffffffffffffff163373ffffffffffffffffffffffffffffffffffffffff161461017157600080fd5b80600260006101000a81548173ffffffffffffffffffffffffffffffffffffffff021916908373ffffffffffffffffffffffffffffffffffffffff16021790555050565b60008054906101000a900473ffffffffffffffffffffffffffffffffffffffff1673ffffffffffffffffffffffffffffffffffffffff163373ffffffffffffffffffffffffffffffffffffffff161461020d57600080fd5b80600160006101000a81548173ffffffffffffffffffffffffffffffffffffffff021916908373ffffffffffffffffffffffffffffffffffffffff16021790555050565b600073ffffffffffffffffffffffffffffffffffffffff82169050919050565b600061027c82610251565b9050919050565b61028c81610271565b82525050565b60006020820190506102a76000830184610283565b92915050565b600080fd5b6102bb81610271565b81146102c657600080fd5b50565b6000813590506102d8816102b2565b92915050565b6000602082840312156102f4576102f36102ad565b5b6000610302848285016102c9565b9150509291505056fea26469706673582212207642e3fb3ee7694adac98755145bd2af99b5604c02d11756cb4ac67f70573d0d64736f6c63430008110033",
  "immutableReferences": {},
  "source": "// SPDX-License-Identifier: MIT\r\npragma solidity ^0.8.17;\r\n\r\ncontract Blockfunds {\r\n    // ************************ STATE VARIABLES ************************ //\r\n\r\n    address owner;\r\n\r\n    address contract_donors_address;\r\n    address contract_causes_address;\r\n\r\n    // ************************ FUNCTIONS ************************ //\r\n\r\n    // Constructor\r\n    constructor() {\r\n        owner = msg.sender;\r\n    }\r\n\r\n    function setContractDonors(address donors_addr) public {\r\n        require(msg.sender == owner);\r\n        contract_donors_address = donors_addr;\r\n    }\r\n\r\n    function setContractCauses(address causes_addr) public {\r\n        require(msg.sender == owner);\r\n        contract_causes_address = causes_addr;\r\n    }\r\n\r\n    function getContractDonors() public view returns (address) {\r\n        return contract_donors_address;\r\n    }\r\n\r\n    function getContractCauses() public view returns (address) {\r\n        return contract_causes_address;\r\n    }\r\n}\r\n",
  "sourcePath": "C:\\Users\\zohai\\Desktop\\Project\\contracts\\contracts\\Blockfunds.sol",
  "compiler": {
    "name": "solc",
    "version": "0.8.17+commit.8df45f5f.Emscripten.clang"
  },
  "schemaVersion": "3.4.11",
  "updatedAt": "2022-12-16T11:07:11.573Z",
  "devdoc": {
    "kind": "dev",
    "methods": {},
    "version": 1
  },
  "userdoc": {
    "kind": "user",
    "methods": {},
    "version": 1
  }
}