{
  "contractName": "Blockfunds",
  "abi": [
    {
      "inputs": [],
      "stateMutability": "nonpayable",
      "type": "constructor"
    },
    {
      "inputs": [
        {
          "internalType": "address",
          "name": "donors_addr",
          "type": "address"
        }
      ],
      "name": "setDonorsAddress",
      "outputs": [],
      "stateMutability": "nonpayable",
      "type": "function"
    },
    {
      "inputs": [
        {
          "internalType": "address",
          "name": "causes_addr",
          "type": "address"
        }
      ],
      "name": "setCausesAddress",
      "outputs": [],
      "stateMutability": "nonpayable",
      "type": "function"
    },
    {
      "inputs": [],
      "name": "getDonorsAddress",
      "outputs": [
        {
          "internalType": "address",
          "name": "",
          "type": "address"
        }
      ],
      "stateMutability": "view",
      "type": "function",
      "constant": true
    },
    {
      "inputs": [],
      "name": "getCausesAddress",
      "outputs": [
        {
          "internalType": "address",
          "name": "",
          "type": "address"
        }
      ],
      "stateMutability": "view",
      "type": "function",
      "constant": true
    }
  ],
  "bytecode": "0x608060405234801561001057600080fd5b50336000806101000a81548173ffffffffffffffffffffffffffffffffffffffff021916908373ffffffffffffffffffffffffffffffffffffffff160217905550610341806100606000396000f3fe608060405234801561001057600080fd5b506004361061004c5760003560e01c80637ec329dc1461005157806399b6af5c1461006d578063b0504bee14610089578063bc1e1bfb146100a7575b600080fd5b61006b600480360381019061006691906102b4565b6100c5565b005b610087600480360381019061008291906102b4565b610161565b005b6100916101fd565b60405161009e91906102f0565b60405180910390f35b6100af610227565b6040516100bc91906102f0565b60405180910390f35b60008054906101000a900473ffffffffffffffffffffffffffffffffffffffff1673ffffffffffffffffffffffffffffffffffffffff163373ffffffffffffffffffffffffffffffffffffffff161461011d57600080fd5b80600160006101000a81548173ffffffffffffffffffffffffffffffffffffffff021916908373ffffffffffffffffffffffffffffffffffffffff16021790555050565b60008054906101000a900473ffffffffffffffffffffffffffffffffffffffff1673ffffffffffffffffffffffffffffffffffffffff163373ffffffffffffffffffffffffffffffffffffffff16146101b957600080fd5b80600260006101000a81548173ffffffffffffffffffffffffffffffffffffffff021916908373ffffffffffffffffffffffffffffffffffffffff16021790555050565b6000600260009054906101000a900473ffffffffffffffffffffffffffffffffffffffff16905090565b6000600160009054906101000a900473ffffffffffffffffffffffffffffffffffffffff16905090565b600080fd5b600073ffffffffffffffffffffffffffffffffffffffff82169050919050565b600061028182610256565b9050919050565b61029181610276565b811461029c57600080fd5b50565b6000813590506102ae81610288565b92915050565b6000602082840312156102ca576102c9610251565b5b60006102d88482850161029f565b91505092915050565b6102ea81610276565b82525050565b600060208201905061030560008301846102e1565b9291505056fea2646970667358221220fffea3c27ae4b9f73a0683c2a30e97cb795c02729ea7d4fe7620b39e0f39dc8e64736f6c63430008110033",
  "immutableReferences": {},
  "source": "// SPDX-License-Identifier: MIT\r\npragma solidity ^0.8.17;\r\n\r\ncontract Blockfunds {\r\n    // ************************ STATE VARIABLES ************************ //\r\n\r\n    address private owner;\r\n\r\n    address private donors_address;\r\n    address private causes_address;\r\n\r\n    // ************************ FUNCTIONS ************************ //\r\n\r\n    // Constructor\r\n    constructor() {\r\n        owner = msg.sender;\r\n    }\r\n\r\n    function setDonorsAddress(address donors_addr) public {\r\n        require(msg.sender == owner);\r\n        donors_address = donors_addr;\r\n    }\r\n\r\n    function setCausesAddress(address causes_addr) public {\r\n        require(msg.sender == owner);\r\n        causes_address = causes_addr;\r\n    }\r\n\r\n    function getDonorsAddress() public view returns (address) {\r\n        return donors_address;\r\n    }\r\n\r\n    function getCausesAddress() public view returns (address) {\r\n        return causes_address;\r\n    }\r\n}\r\n",
  "sourcePath": "C:\\Users\\zohai\\Desktop\\Blockfunds\\contracts\\contracts\\Blockfunds.sol",
  "compiler": {
    "name": "solc",
    "version": "0.8.17+commit.8df45f5f.Emscripten.clang"
  },
  "schemaVersion": "3.4.11",
  "updatedAt": "2022-12-27T02:57:33.630Z",
  "networkType": "ethereum",
  "devdoc": {
    "kind": "dev",
    "methods": {},
    "version": 1
  },
  "userdoc": {
    "kind": "user",
    "methods": {},
    "version": 1
  }
}