{
  "contractName": "Causes",
  "abi": [
    {
      "inputs": [],
      "stateMutability": "nonpayable",
      "type": "constructor"
    },
    {
      "inputs": [
        {
          "internalType": "address",
          "name": "addr",
          "type": "address"
        }
      ],
      "name": "setBlockfundsAddress",
      "outputs": [],
      "stateMutability": "nonpayable",
      "type": "function"
    },
    {
      "inputs": [
        {
          "internalType": "string",
          "name": "cause_name",
          "type": "string"
        },
        {
          "internalType": "string",
          "name": "activist_name",
          "type": "string"
        },
        {
          "internalType": "uint256",
          "name": "target_amount",
          "type": "uint256"
        },
        {
          "internalType": "uint256",
          "name": "time_threshold",
          "type": "uint256"
        }
      ],
      "name": "addCause",
      "outputs": [],
      "stateMutability": "nonpayable",
      "type": "function"
    },
    {
      "inputs": [],
      "name": "getCauses",
      "outputs": [
        {
          "internalType": "uint256[]",
          "name": "",
          "type": "uint256[]"
        },
        {
          "internalType": "string[]",
          "name": "",
          "type": "string[]"
        },
        {
          "internalType": "uint256[]",
          "name": "",
          "type": "uint256[]"
        },
        {
          "internalType": "uint256[]",
          "name": "",
          "type": "uint256[]"
        }
      ],
      "stateMutability": "view",
      "type": "function",
      "constant": true
    },
    {
      "inputs": [
        {
          "internalType": "uint256",
          "name": "cause_id",
          "type": "uint256"
        }
      ],
      "name": "receiveDonation",
      "outputs": [],
      "stateMutability": "payable",
      "type": "function",
      "payable": true
    },
    {
      "inputs": [
        {
          "internalType": "uint256",
          "name": "cause_id",
          "type": "uint256"
        }
      ],
      "name": "withdrawDonations",
      "outputs": [],
      "stateMutability": "nonpayable",
      "type": "function"
    }
  ],
  "bytecode": "0x608060405234801561001057600080fd5b5033600260006101000a81548173ffffffffffffffffffffffffffffffffffffffff021916908373ffffffffffffffffffffffffffffffffffffffff160217905550611e86806100616000396000f3fe60806040526004361061004a5760003560e01c80630a85641b1461004f578063388a7ec1146100785780634fc77092146100a15780635df2012e146100cf578063d70c03bc146100f8575b600080fd5b34801561005b57600080fd5b506100766004803603810190610071919061116f565b610114565b005b34801561008457600080fd5b5061009f600480360381019061009a919061120e565b610219565b005b3480156100ad57600080fd5b506100b6610af2565b6040516100c6949392919061143a565b60405180910390f35b3480156100db57600080fd5b506100f660048036038101906100f191906114f9565b610ec2565b005b610112600480360381019061010d919061120e565b610f60565b005b60008080549050905060006001816001815401808255809150500390600052602060002090505060008082815481106101505761014f611526565b5b90600052602060002090600702019050610168610fb2565b8160000181905550858160010190816101819190611761565b5060018160020160006101000a81548160ff021916908315150217905550338160020160016101000a81548173ffffffffffffffffffffffffffffffffffffffff021916908373ffffffffffffffffffffffffffffffffffffffff160217905550848160030190816101f39190611761565b5083816004018190555082436102099190611862565b8160060181905550505050505050565b600115156000828154811061023157610230611526565b5b906000526020600020906007020160020160009054906101000a900460ff16151514610292576040517f08c379a0000000000000000000000000000000000000000000000000000000008152600401610289906118f3565b60405180910390fd5b600080600360009054906101000a900473ffffffffffffffffffffffffffffffffffffffff1673ffffffffffffffffffffffffffffffffffffffff166040516024016040516020818303038152906040527fbc1e1bfb000000000000000000000000000000000000000000000000000000007bffffffffffffffffffffffffffffffffffffffffffffffffffffffff19166020820180517bffffffffffffffffffffffffffffffffffffffffffffffffffffffff838183161783525050505060405161035e919061195a565b6000604051808303816000865af19150503d806000811461039b576040519150601f19603f3d011682016040523d82523d6000602084013e6103a0565b606091505b50915091506000818060200190518101906103bb91906119af565b90508073ffffffffffffffffffffffffffffffffffffffff16846040516024016103e591906119eb565b6040516020818303038152906040527f981211e3000000000000000000000000000000000000000000000000000000007bffffffffffffffffffffffffffffffffffffffffffffffffffffffff19166020820180517bffffffffffffffffffffffffffffffffffffffffffffffffffffffff838183161783525050505060405161046f919061195a565b6000604051808303816000865af19150503d80600081146104ac576040519150601f19603f3d011682016040523d82523d6000602084013e6104b1565b606091505b5080935081945050506000828060200190518101906104d09190611a1b565b9050600060036002836104e39190611a48565b6104ed9190611ab9565b90508273ffffffffffffffffffffffffffffffffffffffff168660405160240161051791906119eb565b6040516020818303038152906040527f45674264000000000000000000000000000000000000000000000000000000007bffffffffffffffffffffffffffffffffffffffffffffffffffffffff19166020820180517bffffffffffffffffffffffffffffffffffffffffffffffffffffffff83818316178352505050506040516105a1919061195a565b6000604051808303816000865af19150503d80600081146105de576040519150601f19603f3d011682016040523d82523d6000602084013e6105e3565b606091505b5080955081965050506000848060200190518101906106029190611a1b565b905081811115610956576060808573ffffffffffffffffffffffffffffffffffffffff168960405160240161063791906119eb565b6040516020818303038152906040527fd3d4d6ed000000000000000000000000000000000000000000000000000000007bffffffffffffffffffffffffffffffffffffffffffffffffffffffff19166020820180517bffffffffffffffffffffffffffffffffffffffffffffffffffffffff83818316178352505050506040516106c1919061195a565b6000604051808303816000865af19150503d80600081146106fe576040519150601f19603f3d011682016040523d82523d6000602084013e610703565b606091505b508098508199505050868060200190518101906107209190611bc7565b91508573ffffffffffffffffffffffffffffffffffffffff168960405160240161074a91906119eb565b6040516020818303038152906040527f20cbf6ff000000000000000000000000000000000000000000000000000000007bffffffffffffffffffffffffffffffffffffffffffffffffffffffff19166020820180517bffffffffffffffffffffffffffffffffffffffffffffffffffffffff83818316178352505050506040516107d4919061195a565b6000604051808303816000865af19150503d8060008114610811576040519150601f19603f3d011682016040523d82523d6000602084013e610816565b606091505b508098508199505050868060200190518101906108339190611cd3565b905060005b858110156108e757600083828151811061085557610854611526565b5b602002602001015190508073ffffffffffffffffffffffffffffffffffffffff166108fc670de0b6b3a764000085858151811061089557610894611526565b5b60200260200101516108a79190611a48565b9081150290604051600060405180830381858888f193505050501580156108d2573d6000803e3d6000fd5b505080806108df90611d1c565b915050610838565b506000808a815481106108fd576108fc611526565b5b906000526020600020906007020160020160006101000a81548160ff0219169083151502179055506000808a8154811061093a57610939611526565b5b9060005260206000209060070201600501819055505050610ae9565b6000878154811061096a57610969611526565b5b90600052602060002090600702016006015443116109bd576040517f08c379a00000000000000000000000000000000000000000000000000000000081526004016109b490611dfc565b60405180910390fd5b600087815481106109d1576109d0611526565b5b906000526020600020906007020160020160019054906101000a900473ffffffffffffffffffffffffffffffffffffffff1673ffffffffffffffffffffffffffffffffffffffff166108fc670de0b6b3a764000060008a81548110610a3957610a38611526565b5b906000526020600020906007020160050154610a559190611a48565b9081150290604051600060405180830381858888f19350505050158015610a80573d6000803e3d6000fd5b506000808881548110610a9657610a95611526565b5b906000526020600020906007020160020160006101000a81548160ff0219169083151502179055506000808881548110610ad357610ad2611526565b5b9060005260206000209060070201600501819055505b50505050505050565b606080606080600080600090505b600080549050811015610b6d576001151560008281548110610b2557610b24611526565b5b906000526020600020906007020160020160009054906101000a900460ff16151503610b5a578180610b5690611d1c565b9250505b8080610b6590611d1c565b915050610b00565b5060008167ffffffffffffffff811115610b8a57610b8961100e565b5b604051908082528060200260200182016040528015610bb85781602001602082028036833780820191505090505b50905060008267ffffffffffffffff811115610bd757610bd661100e565b5b604051908082528060200260200182016040528015610c0a57816020015b6060815260200190600190039081610bf55790505b50905060008367ffffffffffffffff811115610c2957610c2861100e565b5b604051908082528060200260200182016040528015610c575781602001602082028036833780820191505090505b50905060008467ffffffffffffffff811115610c7657610c7561100e565b5b604051908082528060200260200182016040528015610ca45781602001602082028036833780820191505090505b509050600080600090505b600080549050811015610ea9576001151560008281548110610cd457610cd3611526565b5b906000526020600020906007020160020160009054906101000a900460ff16151503610e965760008181548110610d0e57610d0d611526565b5b906000526020600020906007020160000154868381518110610d3357610d32611526565b5b60200260200101818152505060008181548110610d5357610d52611526565b5b90600052602060002090600702016001018054610d6f90611584565b80601f0160208091040260200160405190810160405280929190818152602001828054610d9b90611584565b8015610de85780601f10610dbd57610100808354040283529160200191610de8565b820191906000526020600020905b815481529060010190602001808311610dcb57829003601f168201915b5050505050858381518110610e0057610dff611526565b5b602002602001018190525060008181548110610e1f57610e1e611526565b5b906000526020600020906007020160050154848381518110610e4457610e43611526565b5b60200260200101818152505060008181548110610e6457610e63611526565b5b906000526020600020906007020160040154838381518110610e8957610e88611526565b5b6020026020010181815250505b8080610ea190611d1c565b915050610caf565b5084848484995099509950995050505050505090919293565b600260009054906101000a900473ffffffffffffffffffffffffffffffffffffffff1673ffffffffffffffffffffffffffffffffffffffff163373ffffffffffffffffffffffffffffffffffffffff1614610f1c57600080fd5b80600360006101000a81548173ffffffffffffffffffffffffffffffffffffffff021916908373ffffffffffffffffffffffffffffffffffffffff16021790555050565b670de0b6b3a764000034610f749190611ab9565b60008281548110610f8857610f87611526565b5b90600052602060002090600702016005016000828254610fa89190611862565b9250508190555050565b600060016000815480929190610fc790611d1c565b919050555060018054610fda9190611e1c565b905090565b6000604051905090565b600080fd5b600080fd5b600080fd5b600080fd5b6000601f19601f8301169050919050565b7f4e487b7100000000000000000000000000000000000000000000000000000000600052604160045260246000fd5b61104682610ffd565b810181811067ffffffffffffffff821117156110655761106461100e565b5b80604052505050565b6000611078610fdf565b9050611084828261103d565b919050565b600067ffffffffffffffff8211156110a4576110a361100e565b5b6110ad82610ffd565b9050602081019050919050565b82818337600083830152505050565b60006110dc6110d784611089565b61106e565b9050828152602081018484840111156110f8576110f7610ff8565b5b6111038482856110ba565b509392505050565b600082601f8301126111205761111f610ff3565b5b81356111308482602086016110c9565b91505092915050565b6000819050919050565b61114c81611139565b811461115757600080fd5b50565b60008135905061116981611143565b92915050565b6000806000806080858703121561118957611188610fe9565b5b600085013567ffffffffffffffff8111156111a7576111a6610fee565b5b6111b38782880161110b565b945050602085013567ffffffffffffffff8111156111d4576111d3610fee565b5b6111e08782880161110b565b93505060406111f18782880161115a565b92505060606112028782880161115a565b91505092959194509250565b60006020828403121561122457611223610fe9565b5b60006112328482850161115a565b91505092915050565b600081519050919050565b600082825260208201905092915050565b6000819050602082019050919050565b61127081611139565b82525050565b60006112828383611267565b60208301905092915050565b6000602082019050919050565b60006112a68261123b565b6112b08185611246565b93506112bb83611257565b8060005b838110156112ec5781516112d38882611276565b97506112de8361128e565b9250506001810190506112bf565b5085935050505092915050565b600081519050919050565b600082825260208201905092915050565b6000819050602082019050919050565b600081519050919050565b600082825260208201905092915050565b60005b8381101561135f578082015181840152602081019050611344565b60008484015250505050565b600061137682611325565b6113808185611330565b9350611390818560208601611341565b61139981610ffd565b840191505092915050565b60006113b0838361136b565b905092915050565b6000602082019050919050565b60006113d0826112f9565b6113da8185611304565b9350836020820285016113ec85611315565b8060005b85811015611428578484038952815161140985826113a4565b9450611414836113b8565b925060208a019950506001810190506113f0565b50829750879550505050505092915050565b60006080820190508181036000830152611454818761129b565b9050818103602083015261146881866113c5565b9050818103604083015261147c818561129b565b90508181036060830152611490818461129b565b905095945050505050565b600073ffffffffffffffffffffffffffffffffffffffff82169050919050565b60006114c68261149b565b9050919050565b6114d6816114bb565b81146114e157600080fd5b50565b6000813590506114f3816114cd565b92915050565b60006020828403121561150f5761150e610fe9565b5b600061151d848285016114e4565b91505092915050565b7f4e487b7100000000000000000000000000000000000000000000000000000000600052603260045260246000fd5b7f4e487b7100000000000000000000000000000000000000000000000000000000600052602260045260246000fd5b6000600282049050600182168061159c57607f821691505b6020821081036115af576115ae611555565b5b50919050565b60008190508160005260206000209050919050565b60006020601f8301049050919050565b600082821b905092915050565b6000600883026116177fffffffffffffffffffffffffffffffffffffffffffffffffffffffffffffffff826115da565b61162186836115da565b95508019841693508086168417925050509392505050565b6000819050919050565b600061165e61165961165484611139565b611639565b611139565b9050919050565b6000819050919050565b61167883611643565b61168c61168482611665565b8484546115e7565b825550505050565b600090565b6116a1611694565b6116ac81848461166f565b505050565b5b818110156116d0576116c5600082611699565b6001810190506116b2565b5050565b601f821115611715576116e6816115b5565b6116ef846115ca565b810160208510156116fe578190505b61171261170a856115ca565b8301826116b1565b50505b505050565b600082821c905092915050565b60006117386000198460080261171a565b1980831691505092915050565b60006117518383611727565b9150826002028217905092915050565b61176a82611325565b67ffffffffffffffff8111156117835761178261100e565b5b61178d8254611584565b6117988282856116d4565b600060209050601f8311600181146117cb57600084156117b9578287015190505b6117c38582611745565b86555061182b565b601f1984166117d9866115b5565b60005b82811015611801578489015182556001820191506020850194506020810190506117dc565b8683101561181e578489015161181a601f891682611727565b8355505b6001600288020188555050505b505050505050565b7f4e487b7100000000000000000000000000000000000000000000000000000000600052601160045260246000fd5b600061186d82611139565b915061187883611139565b92508282019050808211156118905761188f611833565b5b92915050565b600082825260208201905092915050565b7f54686973206361757365206973206e6f74206163746976652e00000000000000600082015250565b60006118dd601983611896565b91506118e8826118a7565b602082019050919050565b6000602082019050818103600083015261190c816118d0565b9050919050565b600081519050919050565b600081905092915050565b600061193482611913565b61193e818561191e565b935061194e818560208601611341565b80840191505092915050565b60006119668284611929565b915081905092915050565b600061197c8261149b565b9050919050565b61198c81611971565b811461199757600080fd5b50565b6000815190506119a981611983565b92915050565b6000602082840312156119c5576119c4610fe9565b5b60006119d38482850161199a565b91505092915050565b6119e581611139565b82525050565b6000602082019050611a0060008301846119dc565b92915050565b600081519050611a1581611143565b92915050565b600060208284031215611a3157611a30610fe9565b5b6000611a3f84828501611a06565b91505092915050565b6000611a5382611139565b9150611a5e83611139565b9250828202611a6c81611139565b91508282048414831517611a8357611a82611833565b5b5092915050565b7f4e487b7100000000000000000000000000000000000000000000000000000000600052601260045260246000fd5b6000611ac482611139565b9150611acf83611139565b925082611adf57611ade611a8a565b5b828204905092915050565b600067ffffffffffffffff821115611b0557611b0461100e565b5b602082029050602081019050919050565b600080fd5b600081519050611b2a816114cd565b92915050565b6000611b43611b3e84611aea565b61106e565b90508083825260208201905060208402830185811115611b6657611b65611b16565b5b835b81811015611b8f5780611b7b8882611b1b565b845260208401935050602081019050611b68565b5050509392505050565b600082601f830112611bae57611bad610ff3565b5b8151611bbe848260208601611b30565b91505092915050565b600060208284031215611bdd57611bdc610fe9565b5b600082015167ffffffffffffffff811115611bfb57611bfa610fee565b5b611c0784828501611b99565b91505092915050565b600067ffffffffffffffff821115611c2b57611c2a61100e565b5b602082029050602081019050919050565b6000611c4f611c4a84611c10565b61106e565b90508083825260208201905060208402830185811115611c7257611c71611b16565b5b835b81811015611c9b5780611c878882611a06565b845260208401935050602081019050611c74565b5050509392505050565b600082601f830112611cba57611cb9610ff3565b5b8151611cca848260208601611c3c565b91505092915050565b600060208284031215611ce957611ce8610fe9565b5b600082015167ffffffffffffffff811115611d0757611d06610fee565b5b611d1384828501611ca5565b91505092915050565b6000611d2782611139565b91507fffffffffffffffffffffffffffffffffffffffffffffffffffffffffffffffff8203611d5957611d58611833565b5b600182019050919050565b7f54686520646f6e6174696f6e732063616e6e6f7420626520776974686472617760008201527f6e20756e74696c2074686520646f6e6174696f6e20706572696f6420656e647360208201527f2e00000000000000000000000000000000000000000000000000000000000000604082015250565b6000611de6604183611896565b9150611df182611d64565b606082019050919050565b60006020820190508181036000830152611e1581611dd9565b9050919050565b6000611e2782611139565b9150611e3283611139565b9250828203905081811115611e4a57611e49611833565b5b9291505056fea26469706673582212207d387f46df5bfef4e5310c7e4bff81dae75e105017b0f508e8ca63ae2954d7f164736f6c63430008110033",
  "immutableReferences": {},
  "source": "// SPDX-License-Identifier: MIT\r\npragma solidity ^0.8.17;\r\n\r\ncontract Causes {\r\n    // ************************ STRUCTURES ************************ //\r\n\r\n    struct Cause {\r\n        // Data about the cause itself\r\n        uint256 cause_id;\r\n        string cause_name;\r\n        bool status;\r\n        // Data about the activist\r\n        address payable activist_address;\r\n        string activist_name;\r\n        // Data about the donations that are collected\r\n        uint256 target_amount;\r\n        uint256 collected_amount;\r\n        uint256 donation_period;\r\n    }\r\n\r\n    // ************************ STATE VARIABLES ************************ //\r\n\r\n    Cause[] private causes;\r\n    uint256 private counter;\r\n\r\n    address private owner;\r\n    address private blockfunds_address;\r\n\r\n    // ************************ UTILITIES ************************ //\r\n\r\n    function getCounter() private returns (uint256) {\r\n        counter++;\r\n        return counter - 1;\r\n    }\r\n\r\n    function setBlockfundsAddress(address addr) public {\r\n        require(msg.sender == owner);\r\n        blockfunds_address = addr;\r\n    }\r\n\r\n    // ************************ FUNCTIONS ************************ //\r\n\r\n    // Constructor\r\n    constructor() {\r\n        owner = msg.sender;\r\n    }\r\n\r\n    function addCause(\r\n        string memory cause_name,\r\n        string memory activist_name,\r\n        uint256 target_amount,\r\n        uint256 time_threshold\r\n    ) public {\r\n        uint256 idx = causes.length;\r\n        causes.push();\r\n        Cause storage new_cause = causes[idx];\r\n\r\n        new_cause.cause_id = getCounter();\r\n        new_cause.cause_name = cause_name;\r\n        new_cause.status = true;\r\n\r\n        new_cause.activist_address = payable(msg.sender);\r\n        new_cause.activist_name = activist_name;\r\n\r\n        new_cause.target_amount = target_amount;\r\n\r\n        new_cause.donation_period = block.number + time_threshold;\r\n    }\r\n\r\n    function getCauses()\r\n        public\r\n        view\r\n        returns (\r\n            uint256[] memory,\r\n            string[] memory,\r\n            uint256[] memory,\r\n            uint256[] memory\r\n        )\r\n    {\r\n        // Count the number of active causes\r\n        uint256 num_active_causes;\r\n        for (uint256 i = 0; i < causes.length; i++) {\r\n            if (causes[i].status == true) {\r\n                num_active_causes++;\r\n            }\r\n        }\r\n\r\n        // Add the data for the causes in the respective arrays\r\n        uint256[] memory cause_ids = new uint256[](num_active_causes);\r\n        string[] memory cause_names = new string[](num_active_causes);\r\n        uint256[] memory cause_collected_amounts = new uint256[](\r\n            num_active_causes\r\n        );\r\n        uint256[] memory cause_target_amounts = new uint256[](\r\n            num_active_causes\r\n        );\r\n\r\n        uint256 array_counter;\r\n        for (uint256 i = 0; i < causes.length; i++) {\r\n            if (causes[i].status == true) {\r\n                cause_ids[array_counter] = causes[i].cause_id;\r\n                cause_names[array_counter] = causes[i].cause_name;\r\n                cause_collected_amounts[array_counter] = causes[i]\r\n                    .collected_amount;\r\n                cause_target_amounts[array_counter] = causes[i].target_amount;\r\n            }\r\n        }\r\n\r\n        return (\r\n            cause_ids,\r\n            cause_names,\r\n            cause_collected_amounts,\r\n            cause_target_amounts\r\n        );\r\n    }\r\n\r\n    function receiveDonation(uint256 cause_id) public payable {\r\n        causes[cause_id].collected_amount += (msg.value / 1 ether);\r\n    }\r\n\r\n    function withdrawDonations(uint256 cause_id) public {\r\n        // The cause must currently be active\r\n        require(causes[cause_id].status == true, \"This cause is not active.\");\r\n\r\n        // Check whether more than 2/3 objections have been raised\r\n        (bool success, bytes memory result) = blockfunds_address.call(\r\n            abi.encodeWithSignature(\"getDonorsAddress()\")\r\n        );\r\n\r\n        address donors_address = abi.decode(result, (address));\r\n\r\n        // Get the number of donors\r\n        (success, result) = donors_address.call(\r\n            abi.encodeWithSignature(\"getNumberOfDonors(uint256)\", cause_id)\r\n        );\r\n\r\n        uint256 num_donors = abi.decode(result, (uint256));\r\n        uint256 two_thirds = (num_donors * 2) / 3;\r\n\r\n        // Get the number of objections\r\n        (success, result) = donors_address.call(\r\n            abi.encodeWithSignature(\"getNumberOfObjections(uint256)\", cause_id)\r\n        );\r\n\r\n        uint256 num_objections = abi.decode(result, (uint256));\r\n\r\n        // Refund the donations if more than 2/3 objections have been raised\r\n        if (num_objections > two_thirds) {\r\n            address[] memory donor_addresses;\r\n            uint256[] memory donor_donated_amounts;\r\n\r\n            // Get the amount that has to be refunded to each donor\r\n            (success, result) = donors_address.call(\r\n                abi.encodeWithSignature(\"getDonorAddresses(uint256)\", cause_id)\r\n            );\r\n            donor_addresses = abi.decode(result, (address[]));\r\n\r\n            (success, result) = donors_address.call(\r\n                abi.encodeWithSignature(\r\n                    \"getDonorDonatedAmounts(uint256)\",\r\n                    cause_id\r\n                )\r\n            );\r\n            donor_donated_amounts = abi.decode(result, (uint256[]));\r\n\r\n            // Transfer the refund\r\n            for (uint256 i = 0; i < num_donors; i++) {\r\n                address payable payable_donor_address = payable(\r\n                    donor_addresses[i]\r\n                );\r\n                payable_donor_address.transfer(\r\n                    donor_donated_amounts[i] * 1 ether\r\n                );\r\n            }\r\n\r\n            // Reset the data for the cause\r\n            causes[cause_id].status = false;\r\n            causes[cause_id].collected_amount = 0;\r\n        } else {\r\n            require(\r\n                block.number > causes[cause_id].donation_period,\r\n                \"The donations cannot be withdrawn until the donation period ends.\"\r\n            );\r\n\r\n            // Transfer the donations to the activist's address\r\n            causes[cause_id].activist_address.transfer(\r\n                causes[cause_id].collected_amount * 1 ether\r\n            );\r\n\r\n            // Reset the data for the cause\r\n            causes[cause_id].status = false;\r\n            causes[cause_id].collected_amount = 0;\r\n        }\r\n    }\r\n}\r\n",
  "sourcePath": "C:\\Users\\zohai\\Desktop\\Blockfunds\\contracts\\contracts\\Causes.sol",
  "compiler": {
    "name": "solc",
    "version": "0.8.17+commit.8df45f5f.Emscripten.clang"
  },
  "schemaVersion": "3.4.11",
  "updatedAt": "2022-12-27T02:57:40.661Z",
  "networkType": "ethereum",
  "devdoc": {
    "kind": "dev",
    "methods": {},
    "version": 1
  },
  "userdoc": {
    "kind": "user",
    "methods": {},
    "version": 1
  }
}