{
  "contractName": "Causes",
  "abi": [
    {
      "inputs": [],
      "stateMutability": "nonpayable",
      "type": "constructor"
    },
    {
      "inputs": [
        {
          "internalType": "address",
          "name": "addr",
          "type": "address"
        }
      ],
      "name": "setBlockfundsAddress",
      "outputs": [],
      "stateMutability": "nonpayable",
      "type": "function"
    },
    {
      "inputs": [
        {
          "internalType": "string",
          "name": "cause_name",
          "type": "string"
        },
        {
          "internalType": "string",
          "name": "activist_name",
          "type": "string"
        },
        {
          "internalType": "uint256",
          "name": "target_amount",
          "type": "uint256"
        },
        {
          "internalType": "uint256",
          "name": "time_threshold",
          "type": "uint256"
        }
      ],
      "name": "addCause",
      "outputs": [],
      "stateMutability": "nonpayable",
      "type": "function"
    },
    {
      "inputs": [],
      "name": "getCauses",
      "outputs": [
        {
          "internalType": "uint256[]",
          "name": "",
          "type": "uint256[]"
        },
        {
          "internalType": "string[]",
          "name": "",
          "type": "string[]"
        },
        {
          "internalType": "uint256[]",
          "name": "",
          "type": "uint256[]"
        },
        {
          "internalType": "uint256[]",
          "name": "",
          "type": "uint256[]"
        }
      ],
      "stateMutability": "view",
      "type": "function"
    },
    {
      "inputs": [
        {
          "internalType": "uint256",
          "name": "cause_id",
          "type": "uint256"
        }
      ],
      "name": "receiveDonation",
      "outputs": [],
      "stateMutability": "payable",
      "type": "function"
    },
    {
      "inputs": [
        {
          "internalType": "uint256",
          "name": "cause_id",
          "type": "uint256"
        }
      ],
      "name": "withrawDonations",
      "outputs": [],
      "stateMutability": "nonpayable",
      "type": "function"
    }
  ],
  "bytecode": "0x608060405234801561001057600080fd5b5033600260006101000a81548173ffffffffffffffffffffffffffffffffffffffff021916908373ffffffffffffffffffffffffffffffffffffffff1602179055506117e7806100616000396000f3fe60806040526004361061004a5760003560e01c80630a85641b1461004f5780634fc77092146100785780635df2012e146100a6578063d70c03bc146100cf578063f103157d146100eb575b600080fd5b34801561005b57600080fd5b5061007660048036038101906100719190610d6e565b610114565b005b34801561008457600080fd5b5061008d610219565b60405161009d949392919061100c565b60405180910390f35b3480156100b257600080fd5b506100cd60048036038101906100c891906110cb565b6105e9565b005b6100e960048036038101906100e491906110f8565b610687565b005b3480156100f757600080fd5b50610112600480360381019061010d91906110f8565b6106d9565b005b60008080549050905060006001816001815401808255809150500390600052602060002090505060008082815481106101505761014f611125565b5b90600052602060002090600702019050610168610bb1565b8160000181905550858160010190816101819190611360565b5060018160020160006101000a81548160ff021916908315150217905550338160020160016101000a81548173ffffffffffffffffffffffffffffffffffffffff021916908373ffffffffffffffffffffffffffffffffffffffff160217905550848160030190816101f39190611360565b5083816004018190555082436102099190611461565b8160060181905550505050505050565b606080606080600080600090505b60008054905081101561029457600115156000828154811061024c5761024b611125565b5b906000526020600020906007020160020160009054906101000a900460ff1615150361028157818061027d90611495565b9250505b808061028c90611495565b915050610227565b5060008167ffffffffffffffff8111156102b1576102b0610c0d565b5b6040519080825280602002602001820160405280156102df5781602001602082028036833780820191505090505b50905060008267ffffffffffffffff8111156102fe576102fd610c0d565b5b60405190808252806020026020018201604052801561033157816020015b606081526020019060019003908161031c5790505b50905060008367ffffffffffffffff8111156103505761034f610c0d565b5b60405190808252806020026020018201604052801561037e5781602001602082028036833780820191505090505b50905060008467ffffffffffffffff81111561039d5761039c610c0d565b5b6040519080825280602002602001820160405280156103cb5781602001602082028036833780820191505090505b509050600080600090505b6000805490508110156105d05760011515600082815481106103fb576103fa611125565b5b906000526020600020906007020160020160009054906101000a900460ff161515036105bd576000818154811061043557610434611125565b5b90600052602060002090600702016000015486838151811061045a57610459611125565b5b6020026020010181815250506000818154811061047a57610479611125565b5b9060005260206000209060070201600101805461049690611183565b80601f01602080910402602001604051908101604052809291908181526020018280546104c290611183565b801561050f5780601f106104e45761010080835404028352916020019161050f565b820191906000526020600020905b8154815290600101906020018083116104f257829003601f168201915b505050505085838151811061052757610526611125565b5b60200260200101819052506000818154811061054657610545611125565b5b90600052602060002090600702016005015484838151811061056b5761056a611125565b5b6020026020010181815250506000818154811061058b5761058a611125565b5b9060005260206000209060070201600401548383815181106105b0576105af611125565b5b6020026020010181815250505b80806105c890611495565b9150506103d6565b5084848484995099509950995050505050505090919293565b600260009054906101000a900473ffffffffffffffffffffffffffffffffffffffff1673ffffffffffffffffffffffffffffffffffffffff163373ffffffffffffffffffffffffffffffffffffffff161461064357600080fd5b80600360006101000a81548173ffffffffffffffffffffffffffffffffffffffff021916908373ffffffffffffffffffffffffffffffffffffffff16021790555050565b670de0b6b3a76400003461069b919061150c565b600082815481106106af576106ae611125565b5b906000526020600020906007020160050160008282546106cf9190611461565b9250508190555050565b600080600360009054906101000a900473ffffffffffffffffffffffffffffffffffffffff1673ffffffffffffffffffffffffffffffffffffffff166040516024016040516020818303038152906040527f23595d11000000000000000000000000000000000000000000000000000000007bffffffffffffffffffffffffffffffffffffffffffffffffffffffff19166020820180517bffffffffffffffffffffffffffffffffffffffffffffffffffffffff83818316178352505050506040516107a59190611584565b6000604051808303816000865af19150503d80600081146107e2576040519150601f19603f3d011682016040523d82523d6000602084013e6107e7565b606091505b509150915060008180602001905181019061080291906115d9565b90508073ffffffffffffffffffffffffffffffffffffffff168460405160240161082c9190611615565b6040516020818303038152906040527f981211e3000000000000000000000000000000000000000000000000000000007bffffffffffffffffffffffffffffffffffffffffffffffffffffffff19166020820180517bffffffffffffffffffffffffffffffffffffffffffffffffffffffff83818316178352505050506040516108b69190611584565b6000604051808303816000865af19150503d80600081146108f3576040519150601f19603f3d011682016040523d82523d6000602084013e6108f8565b606091505b5080935081945050506000828060200190518101906109179190611645565b90506000600360028361092a9190611672565b610934919061150c565b90508273ffffffffffffffffffffffffffffffffffffffff168660405160240161095e9190611615565b6040516020818303038152906040527f45674264000000000000000000000000000000000000000000000000000000007bffffffffffffffffffffffffffffffffffffffffffffffffffffffff19166020820180517bffffffffffffffffffffffffffffffffffffffffffffffffffffffff83818316178352505050506040516109e89190611584565b6000604051808303816000865af19150503d8060008114610a25576040519150601f19603f3d011682016040523d82523d6000602084013e610a2a565b606091505b508095508196505050600084806020019051810190610a499190611645565b9050818111610ba85760008781548110610a6657610a65611125565b5b9060005260206000209060070201600601544311610ab9576040517f08c379a0000000000000000000000000000000000000000000000000000000008152600401610ab09061175d565b60405180910390fd5b60008781548110610acd57610acc611125565b5b906000526020600020906007020160020160019054906101000a900473ffffffffffffffffffffffffffffffffffffffff1673ffffffffffffffffffffffffffffffffffffffff166108fc60008981548110610b2c57610b2b611125565b5b9060005260206000209060070201600501549081150290604051600060405180830381858888f19350505050158015610b69573d6000803e3d6000fd5b506000808881548110610b7f57610b7e611125565b5b906000526020600020906007020160020160006101000a81548160ff0219169083151502179055505b50505050505050565b600060016000815480929190610bc690611495565b919050555060018054610bd9919061177d565b905090565b6000604051905090565b600080fd5b600080fd5b600080fd5b600080fd5b6000601f19601f8301169050919050565b7f4e487b7100000000000000000000000000000000000000000000000000000000600052604160045260246000fd5b610c4582610bfc565b810181811067ffffffffffffffff82111715610c6457610c63610c0d565b5b80604052505050565b6000610c77610bde565b9050610c838282610c3c565b919050565b600067ffffffffffffffff821115610ca357610ca2610c0d565b5b610cac82610bfc565b9050602081019050919050565b82818337600083830152505050565b6000610cdb610cd684610c88565b610c6d565b905082815260208101848484011115610cf757610cf6610bf7565b5b610d02848285610cb9565b509392505050565b600082601f830112610d1f57610d1e610bf2565b5b8135610d2f848260208601610cc8565b91505092915050565b6000819050919050565b610d4b81610d38565b8114610d5657600080fd5b50565b600081359050610d6881610d42565b92915050565b60008060008060808587031215610d8857610d87610be8565b5b600085013567ffffffffffffffff811115610da657610da5610bed565b5b610db287828801610d0a565b945050602085013567ffffffffffffffff811115610dd357610dd2610bed565b5b610ddf87828801610d0a565b9350506040610df087828801610d59565b9250506060610e0187828801610d59565b91505092959194509250565b600081519050919050565b600082825260208201905092915050565b6000819050602082019050919050565b610e4281610d38565b82525050565b6000610e548383610e39565b60208301905092915050565b6000602082019050919050565b6000610e7882610e0d565b610e828185610e18565b9350610e8d83610e29565b8060005b83811015610ebe578151610ea58882610e48565b9750610eb083610e60565b925050600181019050610e91565b5085935050505092915050565b600081519050919050565b600082825260208201905092915050565b6000819050602082019050919050565b600081519050919050565b600082825260208201905092915050565b60005b83811015610f31578082015181840152602081019050610f16565b60008484015250505050565b6000610f4882610ef7565b610f528185610f02565b9350610f62818560208601610f13565b610f6b81610bfc565b840191505092915050565b6000610f828383610f3d565b905092915050565b6000602082019050919050565b6000610fa282610ecb565b610fac8185610ed6565b935083602082028501610fbe85610ee7565b8060005b85811015610ffa5784840389528151610fdb8582610f76565b9450610fe683610f8a565b925060208a01995050600181019050610fc2565b50829750879550505050505092915050565b600060808201905081810360008301526110268187610e6d565b9050818103602083015261103a8186610f97565b9050818103604083015261104e8185610e6d565b905081810360608301526110628184610e6d565b905095945050505050565b600073ffffffffffffffffffffffffffffffffffffffff82169050919050565b60006110988261106d565b9050919050565b6110a88161108d565b81146110b357600080fd5b50565b6000813590506110c58161109f565b92915050565b6000602082840312156110e1576110e0610be8565b5b60006110ef848285016110b6565b91505092915050565b60006020828403121561110e5761110d610be8565b5b600061111c84828501610d59565b91505092915050565b7f4e487b7100000000000000000000000000000000000000000000000000000000600052603260045260246000fd5b7f4e487b7100000000000000000000000000000000000000000000000000000000600052602260045260246000fd5b6000600282049050600182168061119b57607f821691505b6020821081036111ae576111ad611154565b5b50919050565b60008190508160005260206000209050919050565b60006020601f8301049050919050565b600082821b905092915050565b6000600883026112167fffffffffffffffffffffffffffffffffffffffffffffffffffffffffffffffff826111d9565b61122086836111d9565b95508019841693508086168417925050509392505050565b6000819050919050565b600061125d61125861125384610d38565b611238565b610d38565b9050919050565b6000819050919050565b61127783611242565b61128b61128382611264565b8484546111e6565b825550505050565b600090565b6112a0611293565b6112ab81848461126e565b505050565b5b818110156112cf576112c4600082611298565b6001810190506112b1565b5050565b601f821115611314576112e5816111b4565b6112ee846111c9565b810160208510156112fd578190505b611311611309856111c9565b8301826112b0565b50505b505050565b600082821c905092915050565b600061133760001984600802611319565b1980831691505092915050565b60006113508383611326565b9150826002028217905092915050565b61136982610ef7565b67ffffffffffffffff81111561138257611381610c0d565b5b61138c8254611183565b6113978282856112d3565b600060209050601f8311600181146113ca57600084156113b8578287015190505b6113c28582611344565b86555061142a565b601f1984166113d8866111b4565b60005b82811015611400578489015182556001820191506020850194506020810190506113db565b8683101561141d5784890151611419601f891682611326565b8355505b6001600288020188555050505b505050505050565b7f4e487b7100000000000000000000000000000000000000000000000000000000600052601160045260246000fd5b600061146c82610d38565b915061147783610d38565b925082820190508082111561148f5761148e611432565b5b92915050565b60006114a082610d38565b91507fffffffffffffffffffffffffffffffffffffffffffffffffffffffffffffffff82036114d2576114d1611432565b5b600182019050919050565b7f4e487b7100000000000000000000000000000000000000000000000000000000600052601260045260246000fd5b600061151782610d38565b915061152283610d38565b925082611532576115316114dd565b5b828204905092915050565b600081519050919050565b600081905092915050565b600061155e8261153d565b6115688185611548565b9350611578818560208601610f13565b80840191505092915050565b60006115908284611553565b915081905092915050565b60006115a68261106d565b9050919050565b6115b68161159b565b81146115c157600080fd5b50565b6000815190506115d3816115ad565b92915050565b6000602082840312156115ef576115ee610be8565b5b60006115fd848285016115c4565b91505092915050565b61160f81610d38565b82525050565b600060208201905061162a6000830184611606565b92915050565b60008151905061163f81610d42565b92915050565b60006020828403121561165b5761165a610be8565b5b600061166984828501611630565b91505092915050565b600061167d82610d38565b915061168883610d38565b925082820261169681610d38565b915082820484148315176116ad576116ac611432565b5b5092915050565b600082825260208201905092915050565b7f596f752063616e6e6f742077697468647261772074686520646f6e6174696f6e60008201527f7320756e74696c2074686520646f6e6174696f6e20706572696f6420656e647360208201527f2e00000000000000000000000000000000000000000000000000000000000000604082015250565b60006117476041836116b4565b9150611752826116c5565b606082019050919050565b600060208201905081810360008301526117768161173a565b9050919050565b600061178882610d38565b915061179383610d38565b92508282039050818111156117ab576117aa611432565b5b9291505056fea2646970667358221220b4b71eb79ad98997c4c449bd0230fb4e5e09ce6d055f488ea8a53eafe71a18a364736f6c63430008110033",
  "immutableReferences": {},
  "source": "// SPDX-License-Identifier: MIT\r\npragma solidity ^0.8.17;\r\n\r\ncontract Causes {\r\n    // ************************ STRUCTURES ************************ //\r\n\r\n    struct Cause {\r\n        // Data about the cause itself\r\n        uint256 cause_id;\r\n        string cause_name;\r\n        bool status;\r\n        // Data about the activist\r\n        address payable activist_address;\r\n        string activist_name;\r\n        // Data about the donations that are collected\r\n        uint256 target_amount;\r\n        uint256 collected_amount;\r\n        uint256 donation_period;\r\n    }\r\n\r\n    // ************************ STATE VARIABLES ************************ //\r\n\r\n    Cause[] private causes;\r\n    uint256 private counter;\r\n\r\n    address private owner;\r\n    address private blockfunds_address;\r\n\r\n    // ************************ UTILITIES ************************ //\r\n\r\n    function getCounter() private returns (uint256) {\r\n        counter++;\r\n        return counter - 1;\r\n    }\r\n\r\n    function setBlockfundsAddress(address addr) public {\r\n        require(msg.sender == owner);\r\n        blockfunds_address = addr;\r\n    }\r\n\r\n    // ************************ FUNCTIONS ************************ //\r\n\r\n    // Constructor\r\n    constructor() {\r\n        owner = msg.sender;\r\n    }\r\n\r\n    function addCause(\r\n        string memory cause_name,\r\n        string memory activist_name,\r\n        uint256 target_amount,\r\n        uint256 time_threshold\r\n    ) public {\r\n        uint256 idx = causes.length;\r\n        causes.push();\r\n        Cause storage new_cause = causes[idx];\r\n\r\n        new_cause.cause_id = getCounter();\r\n        new_cause.cause_name = cause_name;\r\n        new_cause.status = true;\r\n\r\n        new_cause.activist_address = payable(msg.sender);\r\n        new_cause.activist_name = activist_name;\r\n\r\n        new_cause.target_amount = target_amount;\r\n\r\n        new_cause.donation_period = block.number + time_threshold;\r\n    }\r\n\r\n    function getCauses()\r\n        public\r\n        view\r\n        returns (\r\n            uint256[] memory,\r\n            string[] memory,\r\n            uint256[] memory,\r\n            uint256[] memory\r\n        )\r\n    {\r\n        // Count the number of active causes\r\n        uint256 num_active_causes;\r\n        for (uint256 i = 0; i < causes.length; i++) {\r\n            if (causes[i].status == true) {\r\n                num_active_causes++;\r\n            }\r\n        }\r\n\r\n        // Add the data for the causes in the respective arrays\r\n        uint256[] memory cause_ids = new uint256[](num_active_causes);\r\n        string[] memory cause_names = new string[](num_active_causes);\r\n        uint256[] memory cause_collected_amounts = new uint256[](\r\n            num_active_causes\r\n        );\r\n        uint256[] memory cause_target_amounts = new uint256[](\r\n            num_active_causes\r\n        );\r\n\r\n        uint256 array_counter;\r\n        for (uint256 i = 0; i < causes.length; i++) {\r\n            if (causes[i].status == true) {\r\n                cause_ids[array_counter] = causes[i].cause_id;\r\n                cause_names[array_counter] = causes[i].cause_name;\r\n                cause_collected_amounts[array_counter] = causes[i]\r\n                    .collected_amount;\r\n                cause_target_amounts[array_counter] = causes[i].target_amount;\r\n            }\r\n        }\r\n\r\n        return (\r\n            cause_ids,\r\n            cause_names,\r\n            cause_collected_amounts,\r\n            cause_target_amounts\r\n        );\r\n    }\r\n\r\n    function receiveDonation(uint256 cause_id) public payable {\r\n        causes[cause_id].collected_amount += (msg.value / 1 ether);\r\n    }\r\n\r\n    function withrawDonations(uint256 cause_id) public {\r\n        // Check whether more than 2/3 objections have been raised\r\n        (bool success, bytes memory result) = blockfunds_address.call(\r\n            abi.encodeWithSignature(\"getContractCauses()\")\r\n        );\r\n\r\n        address donors_address = abi.decode(result, (address));\r\n\r\n        // Get the number of donors\r\n        (success, result) = donors_address.call(\r\n            abi.encodeWithSignature(\"getNumberOfDonors(uint256)\", cause_id)\r\n        );\r\n\r\n        uint256 num_donors = abi.decode(result, (uint256));\r\n        uint256 two_thirds = (num_donors * 2) / 3;\r\n\r\n        // Get the number of objections\r\n        (success, result) = donors_address.call(\r\n            abi.encodeWithSignature(\"getNumberOfObjections(uint256)\", cause_id)\r\n        );\r\n\r\n        uint256 num_objections = abi.decode(result, (uint256));\r\n\r\n        // Refund the donations if more than 2/3 objections have been raised\r\n        if (num_objections > two_thirds) {\r\n            // Refund\r\n        } else {\r\n            require(\r\n                block.number > causes[cause_id].donation_period,\r\n                \"You cannot withdraw the donations until the donation period ends.\"\r\n            );\r\n\r\n            // Transfer the donations to the activist's address\r\n            causes[cause_id].activist_address.transfer(\r\n                causes[cause_id].collected_amount\r\n            );\r\n\r\n            causes[cause_id].status = false;\r\n        }\r\n    }\r\n}\r\n",
  "sourcePath": "C:\\Users\\zohai\\Desktop\\Blockfunds\\contracts\\contracts\\Causes.sol",
  "compiler": {
    "name": "solc",
    "version": "0.8.17+commit.8df45f5f.Emscripten.clang"
  },
  "schemaVersion": "3.4.11",
  "updatedAt": "2022-12-26T17:25:39.178Z",
  "devdoc": {
    "kind": "dev",
    "methods": {},
    "version": 1
  },
  "userdoc": {
    "kind": "user",
    "methods": {},
    "version": 1
  }
}