{
  "contractName": "Donors",
  "abi": [
    {
      "inputs": [],
      "stateMutability": "nonpayable",
      "type": "constructor"
    },
    {
      "inputs": [
        {
          "internalType": "address",
          "name": "addr",
          "type": "address"
        }
      ],
      "name": "setBlockfundsAddress",
      "outputs": [],
      "stateMutability": "nonpayable",
      "type": "function"
    },
    {
      "inputs": [
        {
          "internalType": "string",
          "name": "donor_name",
          "type": "string"
        }
      ],
      "name": "addDonor",
      "outputs": [],
      "stateMutability": "nonpayable",
      "type": "function"
    },
    {
      "inputs": [],
      "name": "getDonorId",
      "outputs": [
        {
          "internalType": "int256",
          "name": "",
          "type": "int256"
        }
      ],
      "stateMutability": "view",
      "type": "function",
      "constant": true
    },
    {
      "inputs": [
        {
          "internalType": "uint256",
          "name": "donor_id",
          "type": "uint256"
        }
      ],
      "name": "getDonorData",
      "outputs": [
        {
          "internalType": "string",
          "name": "",
          "type": "string"
        },
        {
          "internalType": "uint256[]",
          "name": "",
          "type": "uint256[]"
        },
        {
          "internalType": "uint256[]",
          "name": "",
          "type": "uint256[]"
        }
      ],
      "stateMutability": "view",
      "type": "function",
      "constant": true
    },
    {
      "inputs": [
        {
          "internalType": "uint256",
          "name": "donor_id",
          "type": "uint256"
        },
        {
          "internalType": "uint256",
          "name": "cause_id",
          "type": "uint256"
        }
      ],
      "name": "donate",
      "outputs": [],
      "stateMutability": "payable",
      "type": "function",
      "payable": true
    },
    {
      "inputs": [
        {
          "internalType": "uint256",
          "name": "donor_id",
          "type": "uint256"
        },
        {
          "internalType": "uint256",
          "name": "cause_id",
          "type": "uint256"
        }
      ],
      "name": "raiseObbjection",
      "outputs": [],
      "stateMutability": "nonpayable",
      "type": "function"
    },
    {
      "inputs": [
        {
          "internalType": "uint256",
          "name": "cause_id",
          "type": "uint256"
        }
      ],
      "name": "getDonorAddresses",
      "outputs": [
        {
          "internalType": "address[]",
          "name": "",
          "type": "address[]"
        }
      ],
      "stateMutability": "view",
      "type": "function",
      "constant": true
    },
    {
      "inputs": [
        {
          "internalType": "uint256",
          "name": "cause_id",
          "type": "uint256"
        }
      ],
      "name": "getDonorDonatedAmounts",
      "outputs": [
        {
          "internalType": "uint256[]",
          "name": "",
          "type": "uint256[]"
        }
      ],
      "stateMutability": "view",
      "type": "function",
      "constant": true
    },
    {
      "inputs": [
        {
          "internalType": "uint256",
          "name": "cause_id",
          "type": "uint256"
        }
      ],
      "name": "getNumberOfDonors",
      "outputs": [
        {
          "internalType": "uint256",
          "name": "",
          "type": "uint256"
        }
      ],
      "stateMutability": "view",
      "type": "function",
      "constant": true
    },
    {
      "inputs": [
        {
          "internalType": "uint256",
          "name": "cause_id",
          "type": "uint256"
        }
      ],
      "name": "getNumberOfObjections",
      "outputs": [
        {
          "internalType": "uint256",
          "name": "",
          "type": "uint256"
        }
      ],
      "stateMutability": "view",
      "type": "function",
      "constant": true
    },
    {
      "inputs": [
        {
          "internalType": "uint256",
          "name": "cause_id",
          "type": "uint256"
        }
      ],
      "name": "forceRefund",
      "outputs": [],
      "stateMutability": "nonpayable",
      "type": "function"
    }
  ],
  "bytecode": "0x608060405234801561001057600080fd5b5033600260006101000a81548173ffffffffffffffffffffffffffffffffffffffff021916908373ffffffffffffffffffffffffffffffffffffffff16021790555061226a806100616000396000f3fe60806040526004361061009c5760003560e01c80635df2012e116100645780635df2012e14610189578063780c851e146101b2578063981211e3146101db578063cbc097b414610218578063d3d4d6ed14610257578063f7e3d587146102945761009c565b806305f8d94c146100a15780630cdd53f6146100ca5780631865b87f146100e657806320cbf6ff1461010f578063456742641461014c575b600080fd5b3480156100ad57600080fd5b506100c860048036038101906100c39190611431565b6102bf565b005b6100e460048036038101906100df919061145e565b61056d565b005b3480156100f257600080fd5b5061010d600480360381019061010891906115e4565b610a0e565b005b34801561011b57600080fd5b5061013660048036038101906101319190611431565b610ac4565b60405161014391906116eb565b60405180910390f35b34801561015857600080fd5b50610173600480360381019061016e9190611431565b610be3565b604051610180919061171c565b60405180910390f35b34801561019557600080fd5b506101b060048036038101906101ab9190611795565b610c71565b005b3480156101be57600080fd5b506101d960048036038101906101d4919061145e565b610d0f565b005b3480156101e757600080fd5b5061020260048036038101906101fd9190611431565b610e5e565b60405161020f919061171c565b60405180910390f35b34801561022457600080fd5b5061023f600480360381019061023a9190611431565b610edb565b60405161024e93929190611841565b60405180910390f35b34801561026357600080fd5b5061027e60048036038101906102799190611431565b611168565b60405161028b919061194b565b60405180910390f35b3480156102a057600080fd5b506102a96112c4565b6040516102b69190611986565b60405180910390f35b600080600360009054906101000a900473ffffffffffffffffffffffffffffffffffffffff1673ffffffffffffffffffffffffffffffffffffffff166040516024016040516020818303038152906040527fb0504bee000000000000000000000000000000000000000000000000000000007bffffffffffffffffffffffffffffffffffffffffffffffffffffffff19166020820180517bffffffffffffffffffffffffffffffffffffffffffffffffffffffff838183161783525050505060405161038b91906119e8565b6000604051808303816000865af19150503d80600081146103c8576040519150601f19603f3d011682016040523d82523d6000602084013e6103cd565b606091505b509150915081610412576040517f08c379a000000000000000000000000000000000000000000000000000000000815260040161040990611a4b565b60405180910390fd5b6000818060200190518101906104289190611aa9565b90508073ffffffffffffffffffffffffffffffffffffffff1684604051602401610452919061171c565b6040516020818303038152906040527f388a7ec1000000000000000000000000000000000000000000000000000000007bffffffffffffffffffffffffffffffffffffffffffffffffffffffff19166020820180517bffffffffffffffffffffffffffffffffffffffffffffffffffffffff83818316178352505050506040516104dc91906119e8565b6000604051808303816000865af19150503d8060008114610519576040519150601f19603f3d011682016040523d82523d6000602084013e61051e565b606091505b50809350819450505082610567576040517f08c379a000000000000000000000000000000000000000000000000000000000815260040161055e90611b48565b60405180910390fd5b50505050565b600034116105b0576040517f08c379a00000000000000000000000000000000000000000000000000000000081526004016105a790611bb4565b60405180910390fd5b60008083815481106105c5576105c4611bd4565b5b906000526020600020906006020160040160008381526020019081526020016000205414610628576040517f08c379a000000000000000000000000000000000000000000000000000000000815260040161061f90611c75565b60405180910390fd5b6000805b600084815481106106405761063f611bd4565b5b9060005260206000209060060201600301805490508110156106bc57826000858154811061067157610670611bd4565b5b9060005260206000209060060201600301828154811061069457610693611bd4565b5b9060005260206000200154036106a957600191505b80806106b490611cc4565b91505061062c565b508061070f57600083815481106106d6576106d5611bd4565b5b90600052602060002090600602016003018290806001815401808255809150506001900390600052602060002001600090919091909150555b670de0b6b3a7640000346107239190611d3b565b6000848154811061073757610736611bd4565b5b9060005260206000209060060201600401600084815260200190815260200160002081905550600080600360009054906101000a900473ffffffffffffffffffffffffffffffffffffffff1673ffffffffffffffffffffffffffffffffffffffff166040516024016040516020818303038152906040527fb0504bee000000000000000000000000000000000000000000000000000000007bffffffffffffffffffffffffffffffffffffffffffffffffffffffff19166020820180517bffffffffffffffffffffffffffffffffffffffffffffffffffffffff838183161783525050505060405161082991906119e8565b6000604051808303816000865af19150503d8060008114610866576040519150601f19603f3d011682016040523d82523d6000602084013e61086b565b606091505b5091509150816108b0576040517f08c379a00000000000000000000000000000000000000000000000000000000081526004016108a790611a4b565b60405180910390fd5b6000818060200190518101906108c69190611aa9565b90508073ffffffffffffffffffffffffffffffffffffffff1634866040516024016108f1919061171c565b6040516020818303038152906040527fd70c03bc000000000000000000000000000000000000000000000000000000007bffffffffffffffffffffffffffffffffffffffffffffffffffffffff19166020820180517bffffffffffffffffffffffffffffffffffffffffffffffffffffffff838183161783525050505060405161097b91906119e8565b60006040518083038185875af1925050503d80600081146109b8576040519150601f19603f3d011682016040523d82523d6000602084013e6109bd565b606091505b50809350819450505082610a06576040517f08c379a00000000000000000000000000000000000000000000000000000000081526004016109fd90611db8565b60405180910390fd5b505050505050565b6000808054905090506000600181600181540180825580915050039060005260206000209050506000808281548110610a4a57610a49611bd4565b5b90600052602060002090600602019050610a626113ba565b8160000181905550338160010160006101000a81548173ffffffffffffffffffffffffffffffffffffffff021916908373ffffffffffffffffffffffffffffffffffffffff16021790555082816002019081610abe9190611fe4565b50505050565b60606000610ad183610e5e565b905060008167ffffffffffffffff811115610aef57610aee6114b9565b5b604051908082528060200260200182016040528015610b1d5781602001602082028036833780820191505090505b50905060005b600080549050811015610bd8576000808281548110610b4557610b44611bd4565b5b90600052602060002090600602016004016000878152602001908152602001600020541115610bc55760008181548110610b8257610b81611bd4565b5b9060005260206000209060060201600401600086815260200190815260200160002054828281518110610bb857610bb7611bd4565b5b6020026020010181815250505b8080610bd090611cc4565b915050610b23565b508092505050919050565b60008060005b600080549050811015610c67576001151560008281548110610c0e57610c0d611bd4565b5b9060005260206000209060060201600501600086815260200190815260200160002060009054906101000a900460ff16151503610c54578180610c5090611cc4565b9250505b8080610c5f90611cc4565b915050610be9565b5080915050919050565b600260009054906101000a900473ffffffffffffffffffffffffffffffffffffffff1673ffffffffffffffffffffffffffffffffffffffff163373ffffffffffffffffffffffffffffffffffffffff1614610ccb57600080fd5b80600360006101000a81548173ffffffffffffffffffffffffffffffffffffffff021916908373ffffffffffffffffffffffffffffffffffffffff16021790555050565b6000808381548110610d2457610d23611bd4565b5b906000526020600020906006020160040160008381526020019081526020016000205411610d87576040517f08c379a0000000000000000000000000000000000000000000000000000000008152600401610d7e9061214e565b60405180910390fd5b60008281548110610d9b57610d9a611bd4565b5b9060005260206000209060060201600501600082815260200190815260200160002060009054906101000a900460ff1615610e0b576040517f08c379a0000000000000000000000000000000000000000000000000000000008152600401610e02906121e0565b60405180910390fd5b600160008381548110610e2157610e20611bd4565b5b9060005260206000209060060201600501600083815260200190815260200160002060006101000a81548160ff0219169083151502179055505050565b60008060005b600080549050811015610ed1576000808281548110610e8657610e85611bd4565b5b90600052602060002090600602016004016000868152602001908152602001600020541115610ebe578180610eba90611cc4565b9250505b8080610ec990611cc4565b915050610e64565b5080915050919050565b60608060606000808581548110610ef557610ef4611bd4565b5b90600052602060002090600602016003018054905067ffffffffffffffff811115610f2357610f226114b9565b5b604051908082528060200260200182016040528015610f515781602001602082028036833780820191505090505b50905060005b60008681548110610f6b57610f6a611bd4565b5b9060005260206000209060060201600301805490508110156110305760008681548110610f9b57610f9a611bd4565b5b90600052602060002090600602016004016000808881548110610fc157610fc0611bd4565b5b90600052602060002090600602016003018381548110610fe457610fe3611bd4565b5b906000526020600020015481526020019081526020016000205482828151811061101157611010611bd4565b5b602002602001018181525050808061102890611cc4565b915050610f57565b506000858154811061104557611044611bd4565b5b90600052602060002090600602016002016000868154811061106a57611069611bd4565b5b90600052602060002090600602016003018282805461108890611e07565b80601f01602080910402602001604051908101604052809291908181526020018280546110b490611e07565b80156111015780601f106110d657610100808354040283529160200191611101565b820191906000526020600020905b8154815290600101906020018083116110e457829003601f168201915b505050505092508180548060200260200160405190810160405280929190818152602001828054801561115357602002820191906000526020600020905b81548152602001906001019080831161113f575b50505050509150935093509350509193909250565b6060600061117583610e5e565b905060008167ffffffffffffffff811115611193576111926114b9565b5b6040519080825280602002602001820160405280156111c15781602001602082028036833780820191505090505b50905060005b6000805490508110156112b95760008082815481106111e9576111e8611bd4565b5b906000526020600020906006020160040160008781526020019081526020016000205411156112a6576000818154811061122657611225611bd4565b5b906000526020600020906006020160010160009054906101000a900473ffffffffffffffffffffffffffffffffffffffff1682828151811061126b5761126a611bd4565b5b602002602001019073ffffffffffffffffffffffffffffffffffffffff16908173ffffffffffffffffffffffffffffffffffffffff16815250505b80806112b190611cc4565b9150506111c7565b508092505050919050565b600080600090505b600080549050811015611392573373ffffffffffffffffffffffffffffffffffffffff166000828154811061130457611303611bd4565b5b906000526020600020906006020160010160009054906101000a900473ffffffffffffffffffffffffffffffffffffffff1673ffffffffffffffffffffffffffffffffffffffff160361137f576000818154811061136557611364611bd4565b5b9060005260206000209060060201600001549150506113b7565b808061138a90611cc4565b9150506112cc565b507fffffffffffffffffffffffffffffffffffffffffffffffffffffffffffffffff90505b90565b6000600160008154809291906113cf90611cc4565b9190505550600180546113e29190612200565b905090565b6000604051905090565b600080fd5b600080fd5b6000819050919050565b61140e816113fb565b811461141957600080fd5b50565b60008135905061142b81611405565b92915050565b600060208284031215611447576114466113f1565b5b60006114558482850161141c565b91505092915050565b60008060408385031215611475576114746113f1565b5b60006114838582860161141c565b92505060206114948582860161141c565b9150509250929050565b600080fd5b600080fd5b6000601f19601f8301169050919050565b7f4e487b7100000000000000000000000000000000000000000000000000000000600052604160045260246000fd5b6114f1826114a8565b810181811067ffffffffffffffff821117156115105761150f6114b9565b5b80604052505050565b60006115236113e7565b905061152f82826114e8565b919050565b600067ffffffffffffffff82111561154f5761154e6114b9565b5b611558826114a8565b9050602081019050919050565b82818337600083830152505050565b600061158761158284611534565b611519565b9050828152602081018484840111156115a3576115a26114a3565b5b6115ae848285611565565b509392505050565b600082601f8301126115cb576115ca61149e565b5b81356115db848260208601611574565b91505092915050565b6000602082840312156115fa576115f96113f1565b5b600082013567ffffffffffffffff811115611618576116176113f6565b5b611624848285016115b6565b91505092915050565b600081519050919050565b600082825260208201905092915050565b6000819050602082019050919050565b611662816113fb565b82525050565b60006116748383611659565b60208301905092915050565b6000602082019050919050565b60006116988261162d565b6116a28185611638565b93506116ad83611649565b8060005b838110156116de5781516116c58882611668565b97506116d083611680565b9250506001810190506116b1565b5085935050505092915050565b60006020820190508181036000830152611705818461168d565b905092915050565b611716816113fb565b82525050565b6000602082019050611731600083018461170d565b92915050565b600073ffffffffffffffffffffffffffffffffffffffff82169050919050565b600061176282611737565b9050919050565b61177281611757565b811461177d57600080fd5b50565b60008135905061178f81611769565b92915050565b6000602082840312156117ab576117aa6113f1565b5b60006117b984828501611780565b91505092915050565b600081519050919050565b600082825260208201905092915050565b60005b838110156117fc5780820151818401526020810190506117e1565b60008484015250505050565b6000611813826117c2565b61181d81856117cd565b935061182d8185602086016117de565b611836816114a8565b840191505092915050565b6000606082019050818103600083015261185b8186611808565b9050818103602083015261186f818561168d565b90508181036040830152611883818461168d565b9050949350505050565b600081519050919050565b600082825260208201905092915050565b6000819050602082019050919050565b6118c281611757565b82525050565b60006118d483836118b9565b60208301905092915050565b6000602082019050919050565b60006118f88261188d565b6119028185611898565b935061190d836118a9565b8060005b8381101561193e57815161192588826118c8565b9750611930836118e0565b925050600181019050611911565b5085935050505092915050565b6000602082019050818103600083015261196581846118ed565b905092915050565b6000819050919050565b6119808161196d565b82525050565b600060208201905061199b6000830184611977565b92915050565b600081519050919050565b600081905092915050565b60006119c2826119a1565b6119cc81856119ac565b93506119dc8185602086016117de565b80840191505092915050565b60006119f482846119b7565b915081905092915050565b7f426c6f636b66756e647320636f756c64206e6f7420626520696e766f6b65642e600082015250565b6000611a356020836117cd565b9150611a40826119ff565b602082019050919050565b60006020820190508181036000830152611a6481611a28565b9050919050565b6000611a7682611737565b9050919050565b611a8681611a6b565b8114611a9157600080fd5b50565b600081519050611aa381611a7d565b92915050565b600060208284031215611abf57611abe6113f1565b5b6000611acd84828501611a94565b91505092915050565b7f54686520726566756e6420636f756c64206e6f742062652070726f636573736560008201527f642e000000000000000000000000000000000000000000000000000000000000602082015250565b6000611b326022836117cd565b9150611b3d82611ad6565b604082019050919050565b60006020820190508181036000830152611b6181611b25565b9050919050565b7f54686520646f6e6174696f6e20616d6f756e7420697320696e76616c69642e00600082015250565b6000611b9e601f836117cd565b9150611ba982611b68565b602082019050919050565b60006020820190508181036000830152611bcd81611b91565b9050919050565b7f4e487b7100000000000000000000000000000000000000000000000000000000600052603260045260246000fd5b7f596f752063616e6e6f7420646f6e617465206d6f7265207468616e206f6e636560008201527f2e00000000000000000000000000000000000000000000000000000000000000602082015250565b6000611c5f6021836117cd565b9150611c6a82611c03565b604082019050919050565b60006020820190508181036000830152611c8e81611c52565b9050919050565b7f4e487b7100000000000000000000000000000000000000000000000000000000600052601160045260246000fd5b6000611ccf826113fb565b91507fffffffffffffffffffffffffffffffffffffffffffffffffffffffffffffffff8203611d0157611d00611c95565b5b600182019050919050565b7f4e487b7100000000000000000000000000000000000000000000000000000000600052601260045260246000fd5b6000611d46826113fb565b9150611d51836113fb565b925082611d6157611d60611d0c565b5b828204905092915050565b7f54686520646f6e6174696f6e20636f756c64206e6f742062652073656e742e00600082015250565b6000611da2601f836117cd565b9150611dad82611d6c565b602082019050919050565b60006020820190508181036000830152611dd181611d95565b9050919050565b7f4e487b7100000000000000000000000000000000000000000000000000000000600052602260045260246000fd5b60006002820490506001821680611e1f57607f821691505b602082108103611e3257611e31611dd8565b5b50919050565b60008190508160005260206000209050919050565b60006020601f8301049050919050565b600082821b905092915050565b600060088302611e9a7fffffffffffffffffffffffffffffffffffffffffffffffffffffffffffffffff82611e5d565b611ea48683611e5d565b95508019841693508086168417925050509392505050565b6000819050919050565b6000611ee1611edc611ed7846113fb565b611ebc565b6113fb565b9050919050565b6000819050919050565b611efb83611ec6565b611f0f611f0782611ee8565b848454611e6a565b825550505050565b600090565b611f24611f17565b611f2f818484611ef2565b505050565b5b81811015611f5357611f48600082611f1c565b600181019050611f35565b5050565b601f821115611f9857611f6981611e38565b611f7284611e4d565b81016020851015611f81578190505b611f95611f8d85611e4d565b830182611f34565b50505b505050565b600082821c905092915050565b6000611fbb60001984600802611f9d565b1980831691505092915050565b6000611fd48383611faa565b9150826002028217905092915050565b611fed826117c2565b67ffffffffffffffff811115612006576120056114b9565b5b6120108254611e07565b61201b828285611f57565b600060209050601f83116001811461204e576000841561203c578287015190505b6120468582611fc8565b8655506120ae565b601f19841661205c86611e38565b60005b828110156120845784890151825560018201915060208501945060208101905061205f565b868310156120a1578489015161209d601f891682611faa565b8355505b6001600288020188555050505b505050505050565b7f596f752063616e6e6f7420726169736520616e206f626a656374696f6e20666f60008201527f722061206361757365207468617420796f752068617665206e6f7420646f6e6160208201527f74656420746f2e00000000000000000000000000000000000000000000000000604082015250565b60006121386047836117cd565b9150612143826120b6565b606082019050919050565b600060208201905081810360008301526121678161212b565b9050919050565b7f596f75206861766520616c72656164792072616973656420616e79206f626a6560008201527f6374696f6e20666f7220746869732063617573652e0000000000000000000000602082015250565b60006121ca6035836117cd565b91506121d58261216e565b604082019050919050565b600060208201905081810360008301526121f9816121bd565b9050919050565b600061220b826113fb565b9150612216836113fb565b925082820390508181111561222e5761222d611c95565b5b9291505056fea2646970667358221220cb4f27feae02d458683b99265ccb1b6a1aed18ca997e1282e59bfa4e5948293764736f6c63430008110033",
  "immutableReferences": {},
  "source": "// SPDX-License-Identifier: MIT\r\npragma solidity ^0.8.17;\r\n\r\ncontract Donors {\r\n    // ************************ STRUCTURES ************************ //\r\n\r\n    struct Donor {\r\n        uint256 donor_id;\r\n        address payable donor_address;\r\n        string donor_name;\r\n        uint256[] donated_to;\r\n        mapping(uint256 => uint256) amount_donated; // Stores the amount of money that has been donated to each cause\r\n        mapping(uint256 => bool) objections; // Stores whether an objection has been raised for each cause\r\n    }\r\n\r\n    // ************************ STATE VARIABLES ************************ //\r\n\r\n    Donor[] private donors;\r\n    uint256 private counter;\r\n\r\n    address private owner;\r\n    address private blockfunds_address;\r\n\r\n    // ************************ UTILITIES ************************ //\r\n\r\n    function getCounter() private returns (uint256) {\r\n        counter++;\r\n        return counter - 1;\r\n    }\r\n\r\n    function setBlockfundsAddress(address addr) public {\r\n        require(msg.sender == owner);\r\n        blockfunds_address = addr;\r\n    }\r\n\r\n    // ************************ FUNCTIONS ************************ //\r\n\r\n    // Constructor\r\n    constructor() {\r\n        owner = msg.sender;\r\n    }\r\n\r\n    // Adds a new donor\r\n    function addDonor(string memory donor_name) public {\r\n        uint256 idx = donors.length;\r\n        donors.push();\r\n        Donor storage new_donor = donors[idx];\r\n\r\n        new_donor.donor_id = getCounter();\r\n        new_donor.donor_address = payable(msg.sender);\r\n        new_donor.donor_name = donor_name;\r\n    }\r\n\r\n    // Returns a donor's ID\r\n    function getDonorId() public view returns (int256) {\r\n        for (uint256 i = 0; i < donors.length; i++) {\r\n            if (donors[i].donor_address == msg.sender) {\r\n                return int256(donors[i].donor_id);\r\n            }\r\n        }\r\n        return -1;\r\n    }\r\n\r\n    // Returns a donor's name and donation data\r\n    function getDonorData(uint256 donor_id)\r\n        public\r\n        view\r\n        returns (\r\n            string memory,\r\n            uint256[] memory,\r\n            uint256[] memory\r\n        )\r\n    {\r\n        uint256[] memory amount_donated = new uint256[](\r\n            donors[donor_id].donated_to.length\r\n        );\r\n        for (uint256 i = 0; i < donors[donor_id].donated_to.length; i++) {\r\n            amount_donated[i] = donors[donor_id].amount_donated[\r\n                donors[donor_id].donated_to[i]\r\n            ];\r\n        }\r\n\r\n        return (\r\n            donors[donor_id].donor_name,\r\n            donors[donor_id].donated_to,\r\n            amount_donated\r\n        );\r\n    }\r\n\r\n    // Allows a donor to donate to the given cause\r\n    function donate(uint256 donor_id, uint256 cause_id) public payable {\r\n        // Ensure that the donation amount is positive\r\n        require(msg.value > 0, \"The donation amount is invalid.\");\r\n        require(\r\n            donors[donor_id].amount_donated[cause_id] == 0,\r\n            \"You cannot donate more than once.\"\r\n        );\r\n\r\n        bool flag = false;\r\n\r\n        // Check whether the donor has already donated to the cause before\r\n        for (uint256 i = 0; i < donors[donor_id].donated_to.length; i++) {\r\n            if (donors[donor_id].donated_to[i] == cause_id) {\r\n                flag = true;\r\n            }\r\n        }\r\n\r\n        if (!flag) {\r\n            donors[donor_id].donated_to.push(cause_id);\r\n        }\r\n\r\n        // Add the amount\r\n        donors[donor_id].amount_donated[cause_id] = (msg.value / 1 ether);\r\n\r\n        // Send the amount to the 'causes' contract\r\n        (bool success, bytes memory result) = blockfunds_address.call(\r\n            abi.encodeWithSignature(\"getCausesAddress()\")\r\n        );\r\n        require(success, \"Blockfunds could not be invoked.\");\r\n\r\n        address causes_address = abi.decode(result, (address));\r\n\r\n        (success, result) = causes_address.call{value: msg.value}(\r\n            abi.encodeWithSignature(\"receiveDonation(uint256)\", cause_id)\r\n        );\r\n        require(success, \"The donation could not be sent.\");\r\n    }\r\n\r\n    // Allows a donor to raise an objection for the given cause\r\n    function raiseObbjection(uint256 donor_id, uint256 cause_id) public {\r\n        require(\r\n            donors[donor_id].amount_donated[cause_id] > 0,\r\n            \"You cannot raise an objection for a cause that you have not donated to.\"\r\n        );\r\n\r\n        require(\r\n            !donors[donor_id].objections[cause_id],\r\n            \"You have already raised any objection for this cause.\"\r\n        );\r\n\r\n        donors[donor_id].objections[cause_id] = true;\r\n    }\r\n\r\n    // Returns the addresses of the donors for the given cause\r\n    function getDonorAddresses(uint256 cause_id)\r\n        public\r\n        view\r\n        returns (address[] memory)\r\n    {\r\n        // Create an array of appropriate size\r\n        uint256 num_donors = getNumberOfDonors(cause_id);\r\n        address[] memory donor_addresses = new address[](num_donors);\r\n\r\n        // Copy the data of the donors into the array\r\n        for (uint256 i = 0; i < donors.length; i++) {\r\n            if (donors[i].amount_donated[cause_id] > 0) {\r\n                donor_addresses[i] = donors[i].donor_address;\r\n            }\r\n        }\r\n\r\n        return (donor_addresses);\r\n    }\r\n\r\n    function getDonorDonatedAmounts(uint256 cause_id)\r\n        public\r\n        view\r\n        returns (uint256[] memory)\r\n    {\r\n        // Create an array of appropriate size\r\n        uint256 num_donors = getNumberOfDonors(cause_id);\r\n        uint256[] memory donor_donated_amounts = new uint256[](num_donors);\r\n\r\n        // Copy the data of the donors into the array\r\n        for (uint256 i = 0; i < donors.length; i++) {\r\n            if (donors[i].amount_donated[cause_id] > 0) {\r\n                donor_donated_amounts[i] = donors[i].amount_donated[cause_id];\r\n            }\r\n        }\r\n\r\n        return (donor_donated_amounts);\r\n    }\r\n\r\n    // Returns the number of donors for the given cause\r\n    function getNumberOfDonors(uint256 cause_id) public view returns (uint256) {\r\n        uint256 num_donors;\r\n        for (uint256 i = 0; i < donors.length; i++) {\r\n            if (donors[i].amount_donated[cause_id] > 0) {\r\n                num_donors++;\r\n            }\r\n        }\r\n\r\n        return num_donors;\r\n    }\r\n\r\n    // Returns the number of objections for the given cause\r\n    function getNumberOfObjections(uint256 cause_id)\r\n        public\r\n        view\r\n        returns (uint256)\r\n    {\r\n        uint256 num_objections;\r\n        for (uint256 i = 0; i < donors.length; i++) {\r\n            if (donors[i].objections[cause_id] == true) {\r\n                num_objections++;\r\n            }\r\n        }\r\n\r\n        return num_objections;\r\n    }\r\n\r\n    // Forces the causes contract to refund the donors for the given cause\r\n    function forceRefund(uint256 cause_id) public {\r\n        (bool success, bytes memory result) = blockfunds_address.call(\r\n            abi.encodeWithSignature(\"getCausesAddress()\")\r\n        );\r\n        require(success, \"Blockfunds could not be invoked.\");\r\n        address causes_address = abi.decode(result, (address));\r\n\r\n        (success, result) = causes_address.call(\r\n            abi.encodeWithSignature(\"withdrawDonations(uint256)\", cause_id)\r\n        );\r\n        require(success, \"The refund could not be processed.\");\r\n    }\r\n}\r\n",
  "sourcePath": "C:\\Users\\zohai\\Desktop\\Blockfunds\\contracts\\contracts\\Donors.sol",
  "compiler": {
    "name": "solc",
    "version": "0.8.17+commit.8df45f5f.Emscripten.clang"
  },
  "schemaVersion": "3.4.11",
  "updatedAt": "2022-12-27T05:23:59.035Z",
  "networkType": "ethereum",
  "devdoc": {
    "kind": "dev",
    "methods": {},
    "version": 1
  },
  "userdoc": {
    "kind": "user",
    "methods": {},
    "version": 1
  }
}