{
  "contractName": "Donors",
  "abi": [
    {
      "inputs": [],
      "stateMutability": "nonpayable",
      "type": "constructor"
    },
    {
      "inputs": [
        {
          "internalType": "address",
          "name": "addr",
          "type": "address"
        }
      ],
      "name": "setBlockfundsAddress",
      "outputs": [],
      "stateMutability": "nonpayable",
      "type": "function"
    },
    {
      "inputs": [
        {
          "internalType": "string",
          "name": "donor_name",
          "type": "string"
        }
      ],
      "name": "addDonor",
      "outputs": [],
      "stateMutability": "nonpayable",
      "type": "function"
    },
    {
      "inputs": [],
      "name": "getDonorId",
      "outputs": [
        {
          "internalType": "int256",
          "name": "",
          "type": "int256"
        }
      ],
      "stateMutability": "view",
      "type": "function",
      "constant": true
    },
    {
      "inputs": [
        {
          "internalType": "uint256",
          "name": "donor_id",
          "type": "uint256"
        }
      ],
      "name": "getDonorData",
      "outputs": [
        {
          "internalType": "string",
          "name": "",
          "type": "string"
        },
        {
          "internalType": "uint256[]",
          "name": "",
          "type": "uint256[]"
        },
        {
          "internalType": "uint256[]",
          "name": "",
          "type": "uint256[]"
        }
      ],
      "stateMutability": "view",
      "type": "function",
      "constant": true
    },
    {
      "inputs": [
        {
          "internalType": "uint256",
          "name": "donor_id",
          "type": "uint256"
        },
        {
          "internalType": "uint256",
          "name": "cause_id",
          "type": "uint256"
        }
      ],
      "name": "donate",
      "outputs": [],
      "stateMutability": "payable",
      "type": "function",
      "payable": true
    },
    {
      "inputs": [
        {
          "internalType": "uint256",
          "name": "donor_id",
          "type": "uint256"
        },
        {
          "internalType": "uint256",
          "name": "cause_id",
          "type": "uint256"
        }
      ],
      "name": "raiseObbjection",
      "outputs": [],
      "stateMutability": "nonpayable",
      "type": "function"
    },
    {
      "inputs": [
        {
          "internalType": "uint256",
          "name": "cause_id",
          "type": "uint256"
        }
      ],
      "name": "getNumberOfDonors",
      "outputs": [
        {
          "internalType": "uint256",
          "name": "",
          "type": "uint256"
        }
      ],
      "stateMutability": "view",
      "type": "function",
      "constant": true
    },
    {
      "inputs": [
        {
          "internalType": "uint256",
          "name": "cause_id",
          "type": "uint256"
        }
      ],
      "name": "getNumberOfObjections",
      "outputs": [
        {
          "internalType": "uint256",
          "name": "",
          "type": "uint256"
        }
      ],
      "stateMutability": "view",
      "type": "function",
      "constant": true
    }
  ],
  "bytecode": "0x608060405234801561001057600080fd5b5033600260006101000a81548173ffffffffffffffffffffffffffffffffffffffff021916908373ffffffffffffffffffffffffffffffffffffffff1602179055506117ee806100616000396000f3fe60806040526004361061007b5760003560e01c8063780c851e1161004e578063780c851e1461012b578063981211e314610154578063cbc097b414610191578063f7e3d587146101d05761007b565b80630cdd53f6146100805780631865b87f1461009c57806345674264146100c55780635df2012e14610102575b600080fd5b61009a60048036038101906100959190610ccb565b6101fb565b005b3480156100a857600080fd5b506100c360048036038101906100be9190610e51565b61059b565b005b3480156100d157600080fd5b506100ec60048036038101906100e79190610e9a565b610651565b6040516100f99190610ed6565b60405180910390f35b34801561010e57600080fd5b5061012960048036038101906101249190610f4f565b6106df565b005b34801561013757600080fd5b50610152600480360381019061014d9190610ccb565b61077d565b005b34801561016057600080fd5b5061017b60048036038101906101769190610e9a565b610854565b6040516101889190610ed6565b60405180910390f35b34801561019d57600080fd5b506101b860048036038101906101b39190610e9a565b6108d1565b6040516101c7939291906110b9565b60405180910390f35b3480156101dc57600080fd5b506101e5610b5e565b6040516101f2919061111e565b60405180910390f35b60008080848154811061021157610210611139565b5b90600052602060002090600602016004016000848152602001908152602001600020540361028a576000838154811061024d5761024c611139565b5b9060005260206000209060060201600301829080600181540180825580915050600190039060005260206000200160009091909190915055600190505b670de0b6b3a76400003461029e91906111c6565b600084815481106102b2576102b1611139565b5b9060005260206000209060060201600401600084815260200190815260200160002060008282546102e391906111f7565b92505081905550600080600360009054906101000a900473ffffffffffffffffffffffffffffffffffffffff1673ffffffffffffffffffffffffffffffffffffffff166040516024016040516020818303038152906040527f23595d11000000000000000000000000000000000000000000000000000000007bffffffffffffffffffffffffffffffffffffffffffffffffffffffff19166020820180517bffffffffffffffffffffffffffffffffffffffffffffffffffffffff83818316178352505050506040516103b69190611272565b6000604051808303816000865af19150503d80600081146103f3576040519150601f19603f3d011682016040523d82523d6000602084013e6103f8565b606091505b50915091508161043d576040517f08c379a0000000000000000000000000000000000000000000000000000000008152600401610434906112d5565b60405180910390fd5b6000818060200190518101906104539190611333565b90508073ffffffffffffffffffffffffffffffffffffffff16348660405160240161047e9190610ed6565b6040516020818303038152906040527f71b0418b000000000000000000000000000000000000000000000000000000007bffffffffffffffffffffffffffffffffffffffffffffffffffffffff19166020820180517bffffffffffffffffffffffffffffffffffffffffffffffffffffffff83818316178352505050506040516105089190611272565b60006040518083038185875af1925050503d8060008114610545576040519150601f19603f3d011682016040523d82523d6000602084013e61054a565b606091505b50809350819450505082610593576040517f08c379a000000000000000000000000000000000000000000000000000000000815260040161058a906113ac565b60405180910390fd5b505050505050565b60008080549050905060006001816001815401808255809150500390600052602060002090505060008082815481106105d7576105d6611139565b5b906000526020600020906006020190506105ef610c54565b8160000181905550338160010160006101000a81548173ffffffffffffffffffffffffffffffffffffffff021916908373ffffffffffffffffffffffffffffffffffffffff1602179055508281600201908161064b91906115d8565b50505050565b60008060005b6000805490508110156106d557600115156000828154811061067c5761067b611139565b5b9060005260206000209060060201600501600086815260200190815260200160002060009054906101000a900460ff161515036106c25781806106be906116aa565b9250505b80806106cd906116aa565b915050610657565b5080915050919050565b600260009054906101000a900473ffffffffffffffffffffffffffffffffffffffff1673ffffffffffffffffffffffffffffffffffffffff163373ffffffffffffffffffffffffffffffffffffffff161461073957600080fd5b80600360006101000a81548173ffffffffffffffffffffffffffffffffffffffff021916908373ffffffffffffffffffffffffffffffffffffffff16021790555050565b6000828154811061079157610790611139565b5b9060005260206000209060060201600501600082815260200190815260200160002060009054906101000a900460ff1615610801576040517f08c379a00000000000000000000000000000000000000000000000000000000081526004016107f890611764565b60405180910390fd5b60016000838154811061081757610816611139565b5b9060005260206000209060060201600501600083815260200190815260200160002060006101000a81548160ff0219169083151502179055505050565b60008060005b6000805490508110156108c757600080828154811061087c5761087b611139565b5b906000526020600020906006020160040160008681526020019081526020016000205411156108b45781806108b0906116aa565b9250505b80806108bf906116aa565b91505061085a565b5080915050919050565b606080606060008085815481106108eb576108ea611139565b5b90600052602060002090600602016003018054905067ffffffffffffffff81111561091957610918610d26565b5b6040519080825280602002602001820160405280156109475781602001602082028036833780820191505090505b50905060005b6000868154811061096157610960611139565b5b906000526020600020906006020160030180549050811015610a26576000868154811061099157610990611139565b5b906000526020600020906006020160040160008088815481106109b7576109b6611139565b5b906000526020600020906006020160030183815481106109da576109d9611139565b5b9060005260206000200154815260200190815260200160002054828281518110610a0757610a06611139565b5b6020026020010181815250508080610a1e906116aa565b91505061094d565b5060008581548110610a3b57610a3a611139565b5b906000526020600020906006020160020160008681548110610a6057610a5f611139565b5b906000526020600020906006020160030182828054610a7e906113fb565b80601f0160208091040260200160405190810160405280929190818152602001828054610aaa906113fb565b8015610af75780601f10610acc57610100808354040283529160200191610af7565b820191906000526020600020905b815481529060010190602001808311610ada57829003601f168201915b5050505050925081805480602002602001604051908101604052809291908181526020018280548015610b4957602002820191906000526020600020905b815481526020019060010190808311610b35575b50505050509150935093509350509193909250565b600080600090505b600080549050811015610c2c573373ffffffffffffffffffffffffffffffffffffffff1660008281548110610b9e57610b9d611139565b5b906000526020600020906006020160010160009054906101000a900473ffffffffffffffffffffffffffffffffffffffff1673ffffffffffffffffffffffffffffffffffffffff1603610c195760008181548110610bff57610bfe611139565b5b906000526020600020906006020160000154915050610c51565b8080610c24906116aa565b915050610b66565b507fffffffffffffffffffffffffffffffffffffffffffffffffffffffffffffffff90505b90565b600060016000815480929190610c69906116aa565b919050555060018054610c7c9190611784565b905090565b6000604051905090565b600080fd5b600080fd5b6000819050919050565b610ca881610c95565b8114610cb357600080fd5b50565b600081359050610cc581610c9f565b92915050565b60008060408385031215610ce257610ce1610c8b565b5b6000610cf085828601610cb6565b9250506020610d0185828601610cb6565b9150509250929050565b600080fd5b600080fd5b6000601f19601f8301169050919050565b7f4e487b7100000000000000000000000000000000000000000000000000000000600052604160045260246000fd5b610d5e82610d15565b810181811067ffffffffffffffff82111715610d7d57610d7c610d26565b5b80604052505050565b6000610d90610c81565b9050610d9c8282610d55565b919050565b600067ffffffffffffffff821115610dbc57610dbb610d26565b5b610dc582610d15565b9050602081019050919050565b82818337600083830152505050565b6000610df4610def84610da1565b610d86565b905082815260208101848484011115610e1057610e0f610d10565b5b610e1b848285610dd2565b509392505050565b600082601f830112610e3857610e37610d0b565b5b8135610e48848260208601610de1565b91505092915050565b600060208284031215610e6757610e66610c8b565b5b600082013567ffffffffffffffff811115610e8557610e84610c90565b5b610e9184828501610e23565b91505092915050565b600060208284031215610eb057610eaf610c8b565b5b6000610ebe84828501610cb6565b91505092915050565b610ed081610c95565b82525050565b6000602082019050610eeb6000830184610ec7565b92915050565b600073ffffffffffffffffffffffffffffffffffffffff82169050919050565b6000610f1c82610ef1565b9050919050565b610f2c81610f11565b8114610f3757600080fd5b50565b600081359050610f4981610f23565b92915050565b600060208284031215610f6557610f64610c8b565b5b6000610f7384828501610f3a565b91505092915050565b600081519050919050565b600082825260208201905092915050565b60005b83811015610fb6578082015181840152602081019050610f9b565b60008484015250505050565b6000610fcd82610f7c565b610fd78185610f87565b9350610fe7818560208601610f98565b610ff081610d15565b840191505092915050565b600081519050919050565b600082825260208201905092915050565b6000819050602082019050919050565b61103081610c95565b82525050565b60006110428383611027565b60208301905092915050565b6000602082019050919050565b600061106682610ffb565b6110708185611006565b935061107b83611017565b8060005b838110156110ac5781516110938882611036565b975061109e8361104e565b92505060018101905061107f565b5085935050505092915050565b600060608201905081810360008301526110d38186610fc2565b905081810360208301526110e7818561105b565b905081810360408301526110fb818461105b565b9050949350505050565b6000819050919050565b61111881611105565b82525050565b6000602082019050611133600083018461110f565b92915050565b7f4e487b7100000000000000000000000000000000000000000000000000000000600052603260045260246000fd5b7f4e487b7100000000000000000000000000000000000000000000000000000000600052601260045260246000fd5b7f4e487b7100000000000000000000000000000000000000000000000000000000600052601160045260246000fd5b60006111d182610c95565b91506111dc83610c95565b9250826111ec576111eb611168565b5b828204905092915050565b600061120282610c95565b915061120d83610c95565b925082820190508082111561122557611224611197565b5b92915050565b600081519050919050565b600081905092915050565b600061124c8261122b565b6112568185611236565b9350611266818560208601610f98565b80840191505092915050565b600061127e8284611241565b915081905092915050565b7f426c6f636b66756e647320636f756c64206e6f7420626520696e766f6b65642e600082015250565b60006112bf602083610f87565b91506112ca82611289565b602082019050919050565b600060208201905081810360008301526112ee816112b2565b9050919050565b600061130082610ef1565b9050919050565b611310816112f5565b811461131b57600080fd5b50565b60008151905061132d81611307565b92915050565b60006020828403121561134957611348610c8b565b5b60006113578482850161131e565b91505092915050565b7f54686520646f6e6174696f6e20636f756c64206e6f742062652073656e742e00600082015250565b6000611396601f83610f87565b91506113a182611360565b602082019050919050565b600060208201905081810360008301526113c581611389565b9050919050565b7f4e487b7100000000000000000000000000000000000000000000000000000000600052602260045260246000fd5b6000600282049050600182168061141357607f821691505b602082108103611426576114256113cc565b5b50919050565b60008190508160005260206000209050919050565b60006020601f8301049050919050565b600082821b905092915050565b60006008830261148e7fffffffffffffffffffffffffffffffffffffffffffffffffffffffffffffffff82611451565b6114988683611451565b95508019841693508086168417925050509392505050565b6000819050919050565b60006114d56114d06114cb84610c95565b6114b0565b610c95565b9050919050565b6000819050919050565b6114ef836114ba565b6115036114fb826114dc565b84845461145e565b825550505050565b600090565b61151861150b565b6115238184846114e6565b505050565b5b818110156115475761153c600082611510565b600181019050611529565b5050565b601f82111561158c5761155d8161142c565b61156684611441565b81016020851015611575578190505b61158961158185611441565b830182611528565b50505b505050565b600082821c905092915050565b60006115af60001984600802611591565b1980831691505092915050565b60006115c8838361159e565b9150826002028217905092915050565b6115e182610f7c565b67ffffffffffffffff8111156115fa576115f9610d26565b5b61160482546113fb565b61160f82828561154b565b600060209050601f8311600181146116425760008415611630578287015190505b61163a85826115bc565b8655506116a2565b601f1984166116508661142c565b60005b8281101561167857848901518255600182019150602085019450602081019050611653565b868310156116955784890151611691601f89168261159e565b8355505b6001600288020188555050505b505050505050565b60006116b582610c95565b91507fffffffffffffffffffffffffffffffffffffffffffffffffffffffffffffffff82036116e7576116e6611197565b5b600182019050919050565b7f596f75206861766520616c72656164792072616973656420616e79206f626a6560008201527f6374696f6e20666f7220746869732063617573652e0000000000000000000000602082015250565b600061174e603583610f87565b9150611759826116f2565b604082019050919050565b6000602082019050818103600083015261177d81611741565b9050919050565b600061178f82610c95565b915061179a83610c95565b92508282039050818111156117b2576117b1611197565b5b9291505056fea2646970667358221220d80d4d59d66340e9057e32c98169619588dd225e7fd353b86f099f09ca29e84964736f6c63430008110033",
  "immutableReferences": {},
  "source": "// SPDX-License-Identifier: MIT\r\npragma solidity ^0.8.17;\r\n\r\ncontract Donors {\r\n    // ************************ STRUCTURES ************************ //\r\n\r\n    struct Donor {\r\n        uint256 donor_id;\r\n        address payable donor_address;\r\n        string donor_name;\r\n        uint256[] donated_to;\r\n        mapping(uint256 => uint256) amount_donated; // Stores the amount of money that has been donated to each cause\r\n        mapping(uint256 => bool) objections; // Stores whether an objection has been raised for each cause\r\n    }\r\n\r\n    // ************************ STATE VARIABLES ************************ //\r\n\r\n    Donor[] private donors;\r\n    uint256 private counter;\r\n\r\n    address private owner;\r\n    address private blockfunds_address;\r\n\r\n    // ************************ UTILITIES ************************ //\r\n\r\n    function getCounter() private returns (uint256) {\r\n        counter++;\r\n        return counter - 1;\r\n    }\r\n\r\n    function setBlockfundsAddress(address addr) public {\r\n        require(msg.sender == owner);\r\n        blockfunds_address = addr;\r\n    }\r\n\r\n    // ************************ FUNCTIONS ************************ //\r\n\r\n    // Constructor\r\n    constructor() {\r\n        owner = msg.sender;\r\n    }\r\n\r\n    // Adds a new donor\r\n    function addDonor(string memory donor_name) public {\r\n        uint256 idx = donors.length;\r\n        donors.push();\r\n        Donor storage new_donor = donors[idx];\r\n\r\n        new_donor.donor_id = getCounter();\r\n        new_donor.donor_address = payable(msg.sender);\r\n        new_donor.donor_name = donor_name;\r\n    }\r\n\r\n    // Returns a donor's ID\r\n    function getDonorId() public view returns (int256) {\r\n        for (uint256 i = 0; i < donors.length; i++) {\r\n            if (donors[i].donor_address == msg.sender) {\r\n                return int256(donors[i].donor_id);\r\n            }\r\n        }\r\n        return -1;\r\n    }\r\n\r\n    // Returns a donor's name and donation data\r\n    function getDonorData(uint256 donor_id)\r\n        public\r\n        view\r\n        returns (\r\n            string memory,\r\n            uint256[] memory,\r\n            uint256[] memory\r\n        )\r\n    {\r\n        uint256[] memory amount_donated = new uint256[](\r\n            donors[donor_id].donated_to.length\r\n        );\r\n        for (uint256 i = 0; i < donors[donor_id].donated_to.length; i++) {\r\n            amount_donated[i] = donors[donor_id].amount_donated[\r\n                donors[donor_id].donated_to[i]\r\n            ];\r\n        }\r\n\r\n        return (\r\n            donors[donor_id].donor_name,\r\n            donors[donor_id].donated_to,\r\n            amount_donated\r\n        );\r\n    }\r\n\r\n    // Allows a donor to donate to the given cause\r\n    function donate(uint256 donor_id, uint256 cause_id) public payable {\r\n        bool flag = false;\r\n\r\n        // Check whether the donor has already donated to the cause before\r\n        if (donors[donor_id].amount_donated[cause_id] == 0) {\r\n            donors[donor_id].donated_to.push(cause_id);\r\n            flag = true;\r\n        }\r\n\r\n        // Add the amount\r\n        donors[donor_id].amount_donated[cause_id] += (msg.value / 1 ether);\r\n\r\n        // Send the amount to the 'causes' contract\r\n        (bool success, bytes memory result) = blockfunds_address.call(\r\n            abi.encodeWithSignature(\"getContractCauses()\")\r\n        );\r\n        require(success, \"Blockfunds could not be invoked.\");\r\n\r\n        address causes_address = abi.decode(result, (address));\r\n\r\n        (success, result) = causes_address.call{value: msg.value}(\r\n            abi.encodeWithSignature(\"receiveDonation(uint)\", cause_id)\r\n        );\r\n        require(success, \"The donation could not be sent.\");\r\n    }\r\n\r\n    // Allows a donor to raise an objection for the given cause\r\n    function raiseObbjection(uint256 donor_id, uint256 cause_id) public {\r\n        require(\r\n            !donors[donor_id].objections[cause_id],\r\n            \"You have already raised any objection for this cause.\"\r\n        );\r\n        donors[donor_id].objections[cause_id] = true;\r\n    }\r\n\r\n    // Returns the number of donors for the given cause\r\n    function getNumberOfDonors(uint256 cause_id) public view returns (uint256) {\r\n        uint256 num_donors;\r\n        for (uint256 i = 0; i < donors.length; i++) {\r\n            if (donors[i].amount_donated[cause_id] > 0) {\r\n                num_donors++;\r\n            }\r\n        }\r\n\r\n        return num_donors;\r\n    }\r\n\r\n    // Returns the number of objections for the given cause\r\n    function getNumberOfObjections(uint256 cause_id)\r\n        public\r\n        view\r\n        returns (uint256)\r\n    {\r\n        uint256 num_objections;\r\n        for (uint256 i = 0; i < donors.length; i++) {\r\n            if (donors[i].objections[cause_id] == true) {\r\n                num_objections++;\r\n            }\r\n        }\r\n\r\n        return num_objections;\r\n    }\r\n}\r\n",
  "sourcePath": "C:\\Users\\zohai\\Desktop\\Project\\contracts\\contracts\\Donors.sol",
  "compiler": {
    "name": "solc",
    "version": "0.8.17+commit.8df45f5f.Emscripten.clang"
  },
  "schemaVersion": "3.4.11",
  "updatedAt": "2022-12-16T11:07:19.892Z",
  "networkType": "ethereum",
  "devdoc": {
    "kind": "dev",
    "methods": {},
    "version": 1
  },
  "userdoc": {
    "kind": "user",
    "methods": {},
    "version": 1
  }
}