{
  "contractName": "Donors",
  "abi": [
    {
      "inputs": [],
      "stateMutability": "nonpayable",
      "type": "constructor"
    },
    {
      "inputs": [
        {
          "internalType": "address",
          "name": "addr",
          "type": "address"
        }
      ],
      "name": "setBlockfundsAddress",
      "outputs": [],
      "stateMutability": "nonpayable",
      "type": "function"
    },
    {
      "inputs": [
        {
          "internalType": "string",
          "name": "donor_name",
          "type": "string"
        }
      ],
      "name": "addDonor",
      "outputs": [],
      "stateMutability": "nonpayable",
      "type": "function"
    },
    {
      "inputs": [],
      "name": "getDonorId",
      "outputs": [
        {
          "internalType": "int256",
          "name": "",
          "type": "int256"
        }
      ],
      "stateMutability": "view",
      "type": "function",
      "constant": true
    },
    {
      "inputs": [
        {
          "internalType": "uint256",
          "name": "donor_id",
          "type": "uint256"
        }
      ],
      "name": "getDonorData",
      "outputs": [
        {
          "internalType": "string",
          "name": "",
          "type": "string"
        },
        {
          "internalType": "uint256[]",
          "name": "",
          "type": "uint256[]"
        },
        {
          "internalType": "uint256[]",
          "name": "",
          "type": "uint256[]"
        }
      ],
      "stateMutability": "view",
      "type": "function",
      "constant": true
    },
    {
      "inputs": [
        {
          "internalType": "uint256",
          "name": "donor_id",
          "type": "uint256"
        },
        {
          "internalType": "uint256",
          "name": "cause_id",
          "type": "uint256"
        }
      ],
      "name": "donate",
      "outputs": [],
      "stateMutability": "payable",
      "type": "function",
      "payable": true
    },
    {
      "inputs": [
        {
          "internalType": "uint256",
          "name": "donor_id",
          "type": "uint256"
        },
        {
          "internalType": "uint256",
          "name": "cause_id",
          "type": "uint256"
        }
      ],
      "name": "raiseObbjection",
      "outputs": [],
      "stateMutability": "nonpayable",
      "type": "function"
    },
    {
      "inputs": [
        {
          "internalType": "uint256",
          "name": "cause_id",
          "type": "uint256"
        }
      ],
      "name": "getNumberOfDonors",
      "outputs": [
        {
          "internalType": "uint256",
          "name": "",
          "type": "uint256"
        }
      ],
      "stateMutability": "view",
      "type": "function",
      "constant": true
    },
    {
      "inputs": [
        {
          "internalType": "uint256",
          "name": "cause_id",
          "type": "uint256"
        }
      ],
      "name": "getNumberOfObjections",
      "outputs": [
        {
          "internalType": "uint256",
          "name": "",
          "type": "uint256"
        }
      ],
      "stateMutability": "view",
      "type": "function",
      "constant": true
    }
  ],
  "bytecode": "0x608060405234801561001057600080fd5b5033600260006101000a81548173ffffffffffffffffffffffffffffffffffffffff021916908373ffffffffffffffffffffffffffffffffffffffff160217905550611801806100616000396000f3fe60806040526004361061007b5760003560e01c8063780c851e1161004e578063780c851e1461012b578063981211e314610154578063cbc097b414610191578063f7e3d587146101d05761007b565b80630cdd53f6146100805780631865b87f1461009c57806345674264146100c55780635df2012e14610102575b600080fd5b61009a60048036038101906100959190610bf8565b6101fb565b005b3480156100a857600080fd5b506100c360048036038101906100be9190610d7e565b6104c8565b005b3480156100d157600080fd5b506100ec60048036038101906100e79190610dc7565b61057e565b6040516100f99190610e03565b60405180910390f35b34801561010e57600080fd5b5061012960048036038101906101249190610e7c565b61060c565b005b34801561013757600080fd5b50610152600480360381019061014d9190610bf8565b6106aa565b005b34801561016057600080fd5b5061017b60048036038101906101769190610dc7565b610781565b6040516101889190610e03565b60405180910390f35b34801561019d57600080fd5b506101b860048036038101906101b39190610dc7565b6107fe565b6040516101c793929190610fe6565b60405180910390f35b3480156101dc57600080fd5b506101e5610a8b565b6040516101f2919061104b565b60405180910390f35b60008080848154811061021157610210611066565b5b90600052602060002090600602016004016000848152602001908152602001600020540361028a576000838154811061024d5761024c611066565b5b9060005260206000209060060201600301829080600181540180825580915050600190039060005260206000200160009091909190915055600190505b670de0b6b3a76400003461029e91906110f3565b600084815481106102b2576102b1611066565b5b9060005260206000209060060201600401600084815260200190815260200160002060008282546102e39190611124565b92505081905550600080600360009054906101000a900473ffffffffffffffffffffffffffffffffffffffff1673ffffffffffffffffffffffffffffffffffffffff16604051602001610335906111a4565b604051602081830303815290604052604051610351919061120b565b6000604051808303816000865af19150503d806000811461038e576040519150601f19603f3d011682016040523d82523d6000602084013e610393565b606091505b5091509150816103d8576040517f08c379a00000000000000000000000000000000000000000000000000000000081526004016103cf9061126e565b60405180910390fd5b6000818060200190518101906103ee91906112cc565b90508073ffffffffffffffffffffffffffffffffffffffff1634866040516020016104199190611345565b604051602081830303815290604052604051610435919061120b565b60006040518083038185875af1925050503d8060008114610472576040519150601f19603f3d011682016040523d82523d6000602084013e610477565b606091505b508093508194505050826104c0576040517f08c379a00000000000000000000000000000000000000000000000000000000081526004016104b7906113bf565b60405180910390fd5b505050505050565b600080805490509050600060018160018154018082558091505003906000526020600020905050600080828154811061050457610503611066565b5b9060005260206000209060060201905061051c610b81565b8160000181905550338160010160006101000a81548173ffffffffffffffffffffffffffffffffffffffff021916908373ffffffffffffffffffffffffffffffffffffffff1602179055508281600201908161057891906115eb565b50505050565b60008060005b6000805490508110156106025760011515600082815481106105a9576105a8611066565b5b9060005260206000209060060201600501600086815260200190815260200160002060009054906101000a900460ff161515036105ef5781806105eb906116bd565b9250505b80806105fa906116bd565b915050610584565b5080915050919050565b600260009054906101000a900473ffffffffffffffffffffffffffffffffffffffff1673ffffffffffffffffffffffffffffffffffffffff163373ffffffffffffffffffffffffffffffffffffffff161461066657600080fd5b80600360006101000a81548173ffffffffffffffffffffffffffffffffffffffff021916908373ffffffffffffffffffffffffffffffffffffffff16021790555050565b600082815481106106be576106bd611066565b5b9060005260206000209060060201600501600082815260200190815260200160002060009054906101000a900460ff161561072e576040517f08c379a000000000000000000000000000000000000000000000000000000000815260040161072590611777565b60405180910390fd5b60016000838154811061074457610743611066565b5b9060005260206000209060060201600501600083815260200190815260200160002060006101000a81548160ff0219169083151502179055505050565b60008060005b6000805490508110156107f45760008082815481106107a9576107a8611066565b5b906000526020600020906006020160040160008681526020019081526020016000205411156107e15781806107dd906116bd565b9250505b80806107ec906116bd565b915050610787565b5080915050919050565b6060806060600080858154811061081857610817611066565b5b90600052602060002090600602016003018054905067ffffffffffffffff81111561084657610845610c53565b5b6040519080825280602002602001820160405280156108745781602001602082028036833780820191505090505b50905060005b6000868154811061088e5761088d611066565b5b90600052602060002090600602016003018054905081101561095357600086815481106108be576108bd611066565b5b906000526020600020906006020160040160008088815481106108e4576108e3611066565b5b9060005260206000209060060201600301838154811061090757610906611066565b5b906000526020600020015481526020019081526020016000205482828151811061093457610933611066565b5b602002602001018181525050808061094b906116bd565b91505061087a565b506000858154811061096857610967611066565b5b90600052602060002090600602016002016000868154811061098d5761098c611066565b5b9060005260206000209060060201600301828280546109ab9061140e565b80601f01602080910402602001604051908101604052809291908181526020018280546109d79061140e565b8015610a245780601f106109f957610100808354040283529160200191610a24565b820191906000526020600020905b815481529060010190602001808311610a0757829003601f168201915b5050505050925081805480602002602001604051908101604052809291908181526020018280548015610a7657602002820191906000526020600020905b815481526020019060010190808311610a62575b50505050509150935093509350509193909250565b600080600090505b600080549050811015610b59573373ffffffffffffffffffffffffffffffffffffffff1660008281548110610acb57610aca611066565b5b906000526020600020906006020160010160009054906101000a900473ffffffffffffffffffffffffffffffffffffffff1673ffffffffffffffffffffffffffffffffffffffff1603610b465760008181548110610b2c57610b2b611066565b5b906000526020600020906006020160000154915050610b7e565b8080610b51906116bd565b915050610a93565b507fffffffffffffffffffffffffffffffffffffffffffffffffffffffffffffffff90505b90565b600060016000815480929190610b96906116bd565b919050555060018054610ba99190611797565b905090565b6000604051905090565b600080fd5b600080fd5b6000819050919050565b610bd581610bc2565b8114610be057600080fd5b50565b600081359050610bf281610bcc565b92915050565b60008060408385031215610c0f57610c0e610bb8565b5b6000610c1d85828601610be3565b9250506020610c2e85828601610be3565b9150509250929050565b600080fd5b600080fd5b6000601f19601f8301169050919050565b7f4e487b7100000000000000000000000000000000000000000000000000000000600052604160045260246000fd5b610c8b82610c42565b810181811067ffffffffffffffff82111715610caa57610ca9610c53565b5b80604052505050565b6000610cbd610bae565b9050610cc98282610c82565b919050565b600067ffffffffffffffff821115610ce957610ce8610c53565b5b610cf282610c42565b9050602081019050919050565b82818337600083830152505050565b6000610d21610d1c84610cce565b610cb3565b905082815260208101848484011115610d3d57610d3c610c3d565b5b610d48848285610cff565b509392505050565b600082601f830112610d6557610d64610c38565b5b8135610d75848260208601610d0e565b91505092915050565b600060208284031215610d9457610d93610bb8565b5b600082013567ffffffffffffffff811115610db257610db1610bbd565b5b610dbe84828501610d50565b91505092915050565b600060208284031215610ddd57610ddc610bb8565b5b6000610deb84828501610be3565b91505092915050565b610dfd81610bc2565b82525050565b6000602082019050610e186000830184610df4565b92915050565b600073ffffffffffffffffffffffffffffffffffffffff82169050919050565b6000610e4982610e1e565b9050919050565b610e5981610e3e565b8114610e6457600080fd5b50565b600081359050610e7681610e50565b92915050565b600060208284031215610e9257610e91610bb8565b5b6000610ea084828501610e67565b91505092915050565b600081519050919050565b600082825260208201905092915050565b60005b83811015610ee3578082015181840152602081019050610ec8565b60008484015250505050565b6000610efa82610ea9565b610f048185610eb4565b9350610f14818560208601610ec5565b610f1d81610c42565b840191505092915050565b600081519050919050565b600082825260208201905092915050565b6000819050602082019050919050565b610f5d81610bc2565b82525050565b6000610f6f8383610f54565b60208301905092915050565b6000602082019050919050565b6000610f9382610f28565b610f9d8185610f33565b9350610fa883610f44565b8060005b83811015610fd9578151610fc08882610f63565b9750610fcb83610f7b565b925050600181019050610fac565b5085935050505092915050565b600060608201905081810360008301526110008186610eef565b905081810360208301526110148185610f88565b905081810360408301526110288184610f88565b9050949350505050565b6000819050919050565b61104581611032565b82525050565b6000602082019050611060600083018461103c565b92915050565b7f4e487b7100000000000000000000000000000000000000000000000000000000600052603260045260246000fd5b7f4e487b7100000000000000000000000000000000000000000000000000000000600052601260045260246000fd5b7f4e487b7100000000000000000000000000000000000000000000000000000000600052601160045260246000fd5b60006110fe82610bc2565b915061110983610bc2565b92508261111957611118611095565b5b828204905092915050565b600061112f82610bc2565b915061113a83610bc2565b9250828201905080821115611152576111516110c4565b5b92915050565b7f676574436f6e7472616374436175736573282900000000000000000000000000600082015250565b600061118e601383610eb4565b915061119982611158565b602082019050919050565b600060208201905081810360008301526111bd81611181565b9050919050565b600081519050919050565b600081905092915050565b60006111e5826111c4565b6111ef81856111cf565b93506111ff818560208601610ec5565b80840191505092915050565b600061121782846111da565b915081905092915050565b7f426c6f636b66756e647320636f756c64206e6f7420626520696e766f6b65642e600082015250565b6000611258602083610eb4565b915061126382611222565b602082019050919050565b600060208201905081810360008301526112878161124b565b9050919050565b600061129982610e1e565b9050919050565b6112a98161128e565b81146112b457600080fd5b50565b6000815190506112c6816112a0565b92915050565b6000602082840312156112e2576112e1610bb8565b5b60006112f0848285016112b7565b91505092915050565b7f72656365697665446f6e6174696f6e2875696e74290000000000000000000000600082015250565b600061132f601583610eb4565b915061133a826112f9565b602082019050919050565b6000604082019050818103600083015261135e81611322565b905061136d6020830184610df4565b92915050565b7f54686520646f6e6174696f6e20636f756c64206e6f742062652073656e742e00600082015250565b60006113a9601f83610eb4565b91506113b482611373565b602082019050919050565b600060208201905081810360008301526113d88161139c565b9050919050565b7f4e487b7100000000000000000000000000000000000000000000000000000000600052602260045260246000fd5b6000600282049050600182168061142657607f821691505b602082108103611439576114386113df565b5b50919050565b60008190508160005260206000209050919050565b60006020601f8301049050919050565b600082821b905092915050565b6000600883026114a17fffffffffffffffffffffffffffffffffffffffffffffffffffffffffffffffff82611464565b6114ab8683611464565b95508019841693508086168417925050509392505050565b6000819050919050565b60006114e86114e36114de84610bc2565b6114c3565b610bc2565b9050919050565b6000819050919050565b611502836114cd565b61151661150e826114ef565b848454611471565b825550505050565b600090565b61152b61151e565b6115368184846114f9565b505050565b5b8181101561155a5761154f600082611523565b60018101905061153c565b5050565b601f82111561159f576115708161143f565b61157984611454565b81016020851015611588578190505b61159c61159485611454565b83018261153b565b50505b505050565b600082821c905092915050565b60006115c2600019846008026115a4565b1980831691505092915050565b60006115db83836115b1565b9150826002028217905092915050565b6115f482610ea9565b67ffffffffffffffff81111561160d5761160c610c53565b5b611617825461140e565b61162282828561155e565b600060209050601f8311600181146116555760008415611643578287015190505b61164d85826115cf565b8655506116b5565b601f1984166116638661143f565b60005b8281101561168b57848901518255600182019150602085019450602081019050611666565b868310156116a857848901516116a4601f8916826115b1565b8355505b6001600288020188555050505b505050505050565b60006116c882610bc2565b91507fffffffffffffffffffffffffffffffffffffffffffffffffffffffffffffffff82036116fa576116f96110c4565b5b600182019050919050565b7f596f75206861766520616c72656164792072616973656420616e79206f626a6560008201527f6374696f6e20666f7220746869732063617573652e0000000000000000000000602082015250565b6000611761603583610eb4565b915061176c82611705565b604082019050919050565b6000602082019050818103600083015261179081611754565b9050919050565b60006117a282610bc2565b91506117ad83610bc2565b92508282039050818111156117c5576117c46110c4565b5b9291505056fea2646970667358221220064f49e0a82ef8f2caadff00ea7059177daa3f0361ee7e955a3c2d673ca6470364736f6c63430008110033",
  "immutableReferences": {},
  "source": "// SPDX-License-Identifier: MIT\r\npragma solidity ^0.8.17;\r\n\r\ncontract Donors {\r\n    // ************************ STRUCTURES ************************ //\r\n\r\n    struct Donor {\r\n        uint256 donor_id;\r\n        address payable donor_address;\r\n        string donor_name;\r\n        uint256[] donated_to;\r\n        mapping(uint256 => uint256) amount_donated; // Stores the amount of money that has been donated to each cause\r\n        mapping(uint256 => bool) objections; // Stores whether an objection has been raised for each cause\r\n    }\r\n\r\n    // ************************ STATE VARIABLES ************************ //\r\n\r\n    Donor[] private donors;\r\n    uint256 private counter;\r\n\r\n    address private owner;\r\n    address private blockfunds_address;\r\n\r\n    // ************************ UTILITIES ************************ //\r\n\r\n    function getCounter() private returns (uint256) {\r\n        counter++;\r\n        return counter - 1;\r\n    }\r\n\r\n    function setBlockfundsAddress(address addr) public {\r\n        require(msg.sender == owner);\r\n        blockfunds_address = addr;\r\n    }\r\n\r\n    // ************************ FUNCTIONS ************************ //\r\n\r\n    // Constructor\r\n    constructor() {\r\n        owner = msg.sender;\r\n    }\r\n\r\n    // Adds a new donor\r\n    function addDonor(string memory donor_name) public {\r\n        uint256 idx = donors.length;\r\n        donors.push();\r\n        Donor storage new_donor = donors[idx];\r\n\r\n        new_donor.donor_id = getCounter();\r\n        new_donor.donor_address = payable(msg.sender);\r\n        new_donor.donor_name = donor_name;\r\n    }\r\n\r\n    // Returns a donor's ID\r\n    function getDonorId() public view returns (int256) {\r\n        for (uint256 i = 0; i < donors.length; i++) {\r\n            if (donors[i].donor_address == msg.sender) {\r\n                return int256(donors[i].donor_id);\r\n            }\r\n        }\r\n        return -1;\r\n    }\r\n\r\n    // Returns a donor's name and donation data\r\n    function getDonorData(uint256 donor_id)\r\n        public\r\n        view\r\n        returns (\r\n            string memory,\r\n            uint256[] memory,\r\n            uint256[] memory\r\n        )\r\n    {\r\n        uint256[] memory amount_donated = new uint256[](\r\n            donors[donor_id].donated_to.length\r\n        );\r\n        for (uint256 i = 0; i < donors[donor_id].donated_to.length; i++) {\r\n            amount_donated[i] = donors[donor_id].amount_donated[\r\n                donors[donor_id].donated_to[i]\r\n            ];\r\n        }\r\n\r\n        return (\r\n            donors[donor_id].donor_name,\r\n            donors[donor_id].donated_to,\r\n            amount_donated\r\n        );\r\n    }\r\n\r\n    // Allows a donor to donate to the given cause\r\n    function donate(uint256 donor_id, uint256 cause_id) public payable {\r\n        bool flag = false;\r\n\r\n        // Check whether the donor has already donated to the cause before\r\n        if (donors[donor_id].amount_donated[cause_id] == 0) {\r\n            donors[donor_id].donated_to.push(cause_id);\r\n            flag = true;\r\n        }\r\n\r\n        // Add the amount\r\n        donors[donor_id].amount_donated[cause_id] += (msg.value / 1 ether);\r\n\r\n        // Send the amount to the 'causes' contract\r\n        (bool success, bytes memory result) = blockfunds_address.call(\r\n            abi.encode(\"getContractCauses()\")\r\n        );\r\n        require(success, \"Blockfunds could not be invoked.\");\r\n\r\n        address causes_address = abi.decode(result, (address));\r\n\r\n        (success, result) = causes_address.call{value: msg.value}(\r\n            abi.encode(\"receiveDonation(uint)\", cause_id)\r\n        );\r\n        require(success, \"The donation could not be sent.\");\r\n    }\r\n\r\n    // Allows a donor to raise an objection for the given cause\r\n    function raiseObbjection(uint256 donor_id, uint256 cause_id) public {\r\n        require(\r\n            !donors[donor_id].objections[cause_id],\r\n            \"You have already raised any objection for this cause.\"\r\n        );\r\n        donors[donor_id].objections[cause_id] = true;\r\n    }\r\n\r\n    // Returns the number of donors for the given cause\r\n    function getNumberOfDonors(uint256 cause_id) public view returns (uint256) {\r\n        uint256 num_donors;\r\n        for (uint256 i = 0; i < donors.length; i++) {\r\n            if (donors[i].amount_donated[cause_id] > 0) {\r\n                num_donors++;\r\n            }\r\n        }\r\n\r\n        return num_donors;\r\n    }\r\n\r\n    // Returns the number of objections for the given cause\r\n    function getNumberOfObjections(uint256 cause_id)\r\n        public\r\n        view\r\n        returns (uint256)\r\n    {\r\n        uint256 num_objections;\r\n        for (uint256 i = 0; i < donors.length; i++) {\r\n            if (donors[i].objections[cause_id] == true) {\r\n                num_objections++;\r\n            }\r\n        }\r\n\r\n        return num_objections;\r\n    }\r\n}\r\n",
  "sourcePath": "C:\\Users\\zohai\\Desktop\\Blockfunds\\contracts\\contracts\\Donors.sol",
  "compiler": {
    "name": "solc",
    "version": "0.8.17+commit.8df45f5f.Emscripten.clang"
  },
  "schemaVersion": "3.4.11",
  "updatedAt": "2022-12-26T17:25:59.936Z",
  "networkType": "ethereum",
  "devdoc": {
    "kind": "dev",
    "methods": {},
    "version": 1
  },
  "userdoc": {
    "kind": "user",
    "methods": {},
    "version": 1
  }
}